:0200000470107A
:1004000000002034AD0C1070B3091070B5091070E5
:10041000B7091070B9091070BB091070BD091070D0
:10042000000000000000000000000000BF09107084
:10043000C109107000000000C3091070C5091070D8
:10044000090D107000000000090D1070090D1070EA
:10045000090D1070090D1070090D1070090D107044
:10046000090D107000000000090D1070090D1070CA
:10047000090D1070090D1070090D107000000000BA
:10048000090D107000000000090D1070090D1070AA
:10049000090D1070090D1070090D1070090D107004
:1004A000090D1070090D1070090D1070090D1070F4
:1004B000090D1070090D1070090D1070090D1070E4
:1004C000090D1070090D1070090D1070090D1070D4
:1004D0000000000000000000090D1070090D1070F0
:1004E000090D107000000000000000000000000076
:1004F0000000000000000000090D1070090D1070D0
:10050000C909107000000000000000000000000099
:10051000090D107081151070090D1070090D107003
:10052000090D1070090D1070090D1070090D107073
:10053000090D1070090D1070090D1070090D107063
:10054000090D1070090D1070090D1070090D107053
:10055000090D1070090D1070090D1070090D107043
:0C07400000000000090D1070090D107081
:1007500010B5054C237833B9044B13B10448AFF3FB
:1007600000800123237010BD7000003400000000E1
:10077000B02C107008B5034B1BB103490348AFF30D
:10078000008008BD0000000074000034B02C107020
:10079000044B82B0C3F85C0AD3F85C320193019B2E
:1007A00002B07047008002562DE9F04786B014224F
:1007B000002101A801F0B6FD0820FFF7E9FF102095
:1007C000FFF7E6FF0220FFF7E3FF8020FFF7E0FFDF
:1007D0004FF40040FFF7DCFF4FF48040FFF7D8FFF5
:1007E0004020FFF7D5FF2020FFF7D2FF4FF4005045
:1007F000FFF7CEFF0120012403264FF48068022773
:10080000DFF884A01F4DFFF7C3FF0246DFF87C909E
:1008100050464FF4806100F0BBFD28460022502175
:1008200000F0B6FD48460022082100F0B1FD01228B
:1008300028464FF4806100F0ABFD504601A9CDE998
:100840000184CDE9037600F0B3FC5023284601A9CA
:10085000CDE90134CDE9034600F0AAFC082348465F
:1008600001A9CDE90134CDE9034600F0A1FC2846F9
:1008700001A9CDE90184CDE9037600F099FC06B029
:10088000BDE8F0870018025600100256000002561C
:100890002F4B70B55A6912F4003211D1BFF34F8F4C
:1008A000BFF36F8FC3F85022BFF34F8FBFF36F8F2B
:1008B0005A6942F400325A61BFF34F8FBFF36F8F12
:1008C000234A536913F4803328D1C2F88430BFF32C
:1008D0004F8F43F6E074D2F88030C3F3C900C3F3FE
:1008E0004E335B0100F1010E01464EF001E003EAD8
:1008F000040646EA8175C2F8605201390FF007C854
:10090000203B13F1200FEDD1BFF34F8F536943F418
:1009100080335361BFF34F8FBFF36F8F00F01CFA2A
:100920000A24FFF741FF0B4D4FF48061284600F089
:1009300034FD642000F034FA013CF5D1054C20462A
:100940004FF4806100F029FDC82000F029FAF6E795
:1009500000ED00E000180256C0B26DED81CF11B17C
:1009600040B1012809D09FEC100A9FE80F90FDECE0
:1009700081CF7447024B1960F5E7024BFBE700BFDC
:100980009C0000349800003408B500F03FFD0121C0
:10099000084600F00BFD00F041FD0121022000F0AF
:1009A00005FD00F043FDBDE808400021032000F0F4
:1009B000FDBCFEE7FEE7FEE7FEE7FEE7FEE7704769
:1009C0007047704700F0DAB9014800F059BA00BF2B
:1009D0008C0000340B4A0346116810B509B90A4966
:1009E0001160106809490A4C0344091B8B4206D95F
:1009F00001F0F6FC0C2303604FF0FF3010BD1360D4
:100A0000FCE700BFA000003448060034000020349A
:100A1000000800001E491F4AD1F88C3010B543F47D
:100A20004063C1F88C30536B23F0E05343F08053A4
:100A300053630022184BC3F88022C3F88422C3F802
:100A40008822C3F88C22C3F89022C3F89422C3F8FA
:100A500098220122114B8B60114BC3F8782AD3F8EE
:100A600078028C680F4803F5805304610069C3F86D
:100A70007822D1F888300C4A43F47003C1F88830EA
:100A8000D2F8883043F47003C2F8883010BD00BF3C
:100A900000ED00E000EF00E000E100E00004107075
:100AA000008002560080005600ED02E06E4BF0B56B
:100AB0001A6A02F44012B2F5001F00F0B88006D89E
:100AC00062B99A6C694BC2F3C112D34003E0B2F52C
:100AD000401F0BD00023664A1360F0BD5B6C654A73
:100AE00013F4007F644B08BF1346F4E7D3F8C42027
:100AF00002F04052B2F1805F2AD0B2F1005F36D0EE
:100B0000002A43D1D3F880703D0107F0E04100F1A5
:100B10009680D3F88400D3F88820C7F30B2420F004
:100B20007F400E46B6F1005FC2F3C265C7F30551C0
:100B3000C2F302624FD07CD8002E3CD000264A4B34
:100B40004C4F5B6C13F4007F4B4B08BF3B4638E0C7
:100B5000D3F890703C0107F0E04170D4D3F89400D2
:100B6000C7F30B24D3F8982020F07F40D9E7D3F8BF
:100B7000A070380107F0E04161D4D3F8A400C7F3B6
:100B80000B24D3F8A82020F07F40CAE7D3F8B07038
:100B90003A0107F0E04152D4D3F8B400C7F30B2474
:100BA000D3F8B82020F07F40BBE70A460D46084640
:100BB0000C464FF000662C4B9F6C2C4BC7F3C117B3
:100BC000FB404EB1284AD2F8C420C2F3074201329A
:100BD000B3FBF2F37FE7294B07EE100AB8EEC76AC2
:100BE00007EE104A07EE903ADFED256AB8EEC77AB5
:100BF000F8EEE77AA6EE267A67EE877A07EE101A05
:100C0000B8EEC77AC7EE876A07EE905AB8EEE77A71
:100C100007EE902AF8EEE77A27EE277AC6EE877A73
:100C2000FCEEE77A17EE903ACCE7144BCAE7134B89
:100C300051E7B6F1405F134B18BF0023CCE7B1F189
:100C4000005FF2D009D80029AFD000224FF0006633
:100C5000154610461446114671E7B1F1405F094B45
:100C600018BF0023AEE700BF008002560090D003FB
:100C70000000003400093D000024F400006CDC0298
:100C8000000080330080BB006DED81CF00B5FFF721
:100C90000DFF054B5DF804EB18689FEC100A9FE808
:100CA0000E90FDEC81CF7447000000340F4880F3B4
:100CB0000A880F488546FFF7ADFE0E480E490F4AD9
:100CC000002302E0D458C4500433C4188C42F9D332
:100CD0000B4A0C4C002301E013600432A242FBD308
:100CE00001F084FBFFF7D4FDFEE7000000F81F349D
:100CF00000002034000000346C0000340C3210700E
:100D00007000003448060034FEE7000038B50F4B91
:100D100005461A780AB9012038BD4FF47A73B3FB3F
:100D2000F2F30B4A1068B0FBF3F000F091F80446C0
:100D30000028F0D10F2DEED8024629464FF0FF30A3
:100D400000F052F8034B20461D60E5E70400003434
:100D5000000000340800003410B5032000F032F821
:100D6000FFF7A4FE0F20FFF7D1FF044618B9FFF7E5
:100D70000BFE204610BD0124FBE70000034A044B94
:100D800011681B780B441360704700BFA400003447
:100D900004000034014B1868704700BFA400003401
:100DA00038B50446FFF7F6FF0546631C1EBF044B2B
:100DB0001B78E418FFF7EEFF431BA342FAD338BDBC
:100DC0000400003407490302CA6803F4E06322F414
:100DD000E0621204120C134343F0BF6343F4003388
:100DE000CB60704700ED00E070B5184CE368C3F3CA
:100DF0000223C3F10705042D03F1040628BF0425CF
:100E0000062E4FF0FF36A3F1030398BF002306FA26
:100E100005F521EA05019E40002801FA03F122EAC6
:100E20000602B8BF00F00F0041EA0203A8BF00F1BC
:100E300060404FEA0313B8BF0438DBB2ABBF00F524
:100E40006140241880F80033237670BD00ED00E087
:100E50000138B0F1807F0BD24FF0E023F021054A3A
:100E6000586182F823100020072298611A617047A8
:100E70000120704700ED00E07047704770477047F1
:100E8000036870B5D3F8F86304467204D3F8F053DE
:100E900012D5690410D5D3F8F023002122F4804242
:100EA000C3F8F023826842F0040282604FF480426B
:100EB000C3F8FC23FFF7E1FF72050AD56B0508D5DF
:100EC0004FF48062236800212046C3F8FC2300F021
:100ED000DDFBB00516D5A90514D52368D3F8002588
:100EE000520707D5D3F8F02322F40642C3F8F023C3
:100EF000012262714FF4007200212046C3F8FC23E6
:100F000000F0D6FBF3050AD5E80508D54FF480724A
:100F1000236800212046C3F8FC23FFF7ADFF31040E
:100F200016D52A0414D523680021D3F8F0232046CF
:100F300022F40042C3F8F023A26842F00802A26043
:100F40004FF40042C3F8FC2304236371FFF796FFBC
:100F5000F3030AD5E80308D54FF480322368012152
:100F60002046C3F8FC23FFF787FF71030AD56A0305
:100F700008D54FF48022236801212046C3F8FC23C2
:100F800000F084FBB30316D5A80314D52368D3F867
:100F90000029510707D5D3F8F02322F40602C3F83D
:100FA000F0230122A2714FF4003201212046C3F840
:100FB000FC2300F07DFB320216D52B0214D52368EA
:100FC0000121D3F8F023204622F40002C3F8F023D5
:100FD000A26842F01002A2604FF40002C3F8FC23A2
:100FE0000423A371FFF74AFFF0010AD5E90108D5F0
:100FF0004FF08072236802212046C3F8FC23FFF7DC
:101000003BFF72010AD56B0108D54FF0806223685F
:1010100002212046C3F8FC2300F038FBB00116D5AE
:10102000A90114D52368D3F8002D520707D5D3F8AA
:10103000F02322F00642C3F8F0230122E2714FF0C0
:10104000007202212046C3F8FC2300F031FB002E81
:1010500016DA002D14DA23680221D3F8F023204693
:1010600022F00042C3F8F023A26842F02002A260FE
:101070004FF00042C3F8FC230423E371FFF7FEFEA8
:10108000700614D5690612D523682046D3F8F023DC
:1010900022F04002C3F8F023A26842F00202A260EC
:1010A0004022C3F8FC2304232371FFF7E8FEB206B5
:1010B00014D5AB0612D523682046D3F8F02322F0CE
:1010C0002002C3F8F023A26842F00102A2602022AD
:1010D000C3F8FC2304232371FFF7D1FE70BD10B5C4
:1010E00030B32BB3012923D1D3E900149B682143EA
:1010F000012A43EA0103016809D0022A10D0D1F87D
:10110000582822F0FC021343C1F8583806E0D1F801
:10111000502822F0FC021343C1F85038002010BDC3
:10112000D1F8542822F0FC021343C1F85438F5E7F3
:101130000120F4E7E0B101291AD1012A036808D09F
:10114000022A0ED0D3F8582842F00102C3F85828DA
:1011500005E0D3F8502842F00102C3F850280020DF
:101160007047D3F8542842F00102C3F85428F6E738
:1011700001207047C8B1C3B1012916D1022A0CD091
:10118000032A0ED0012A01D0002070470268D2F84D
:10119000642822F07F421A60F6E70268D2F86828D5
:1011A000F7E70268D2F86C28F3E7012070470000E7
:1011B0002DE9F04F00224FF00F0A734C0B6833FA01
:1011C00002F501D1BDE8F08F012505FA02F919EA0F
:1011D000030300F0C18003274E684FEA420806F07F
:1011E000030507FA08FE6F1E012F6FEA0E0ED1F8F5
:1011F00008C031D8876807EA0E0BCF6807FA08F7EE
:1012000047EA0B078760476827EA0909C6F3001712
:10121000974047EA09074760C7680CFA08FC07EAE5
:101220000E074CEA0707022DC7601AD14FEAD20C0D
:1012300000EB8C0C02F00709DCF820704FEA8909FA
:101240000AFA09FB27EA0B0B0F6907FA09F747EAC5
:101250000B07CCF8207004E0032DDDD1BCF1010FA9
:10126000DAD1076805FA08F507EA0E073D4316F4D8
:10127000403F056070D022F0030707F1AC4707F547
:10128000143702F0030C3D6E4FEACC0C0AFA0CFE48
:1012900025EA0E0E3D4DA84260D005F58065A842B6
:1012A0005ED005F58065A8425CD005F58065A84252
:1012B0005AD005F58065A84258D005F58065A8424A
:1012C00056D005F58065A84254D005F58065A84242
:1012D00052D005F5C055A84250D005F58065A8420A
:1012E0004ED005F58065A8424CD005F58065A84232
:1012F00014BF10250B2505FA0CF545EA0E053D66D1
:10130000D4F8805016F4803F25EA030745EA030528
:1013100008BF3D46C4F88050D4F8845016F4003F0E
:1013200025EA030745EA030508BF3D46C4F8845093
:10133000256816F4801F25EA030745EA030508BF60
:101340003D462560656816F4001F25EA030743EA59
:10135000050308BF3B46636001322FE70025CAE75B
:101360000125C8E70225C6E70325C4E70425C2E72F
:101370000525C0E70625BEE70725BCE70825BAE72F
:101380000925B8E70A25B6E70050025600000256C4
:101390000AB18161704781627047436901EA0302C3
:1013A00021EA030141EA024181617047042829D8FA
:1013B000DFE800F0030B12192100134AD36B23F06E
:1013C000807343EA0163D36370470F4AD36B23F002
:1013D000007343EA4163F6E70B4AD36B23F0806363
:1013E00043EA8163EFE7084A536B23F0807343EAD3
:1013F000016353637047044A936B23F0807343EA9D
:1014000001639363704700BF00480256024AD36BE2
:1014100043F48073D363704700480256024AD36B8B
:1014200043F40073D363704700480256024A536B7B
:1014300043F48073536370470048025608B5038A2B
:101440005B0706D440F2D511034B044A044800F070
:10145000D5FBC06808BD00BFF22C1070853110703C
:101460000D2D10707047000038B5044600285BD081
:101470002E4B034007D0594219402D4B0A03D25836
:101480002C4800F007FEC4F3090313B12A4800F00A
:1014900069FE14F4700F02D0284800F063FEE501E5
:1014A00002D5274800F05EFE14F0C06F0ED025482C
:1014B00000F058FE244B00211A69244800F0EAFD90
:1014C000234B01211A69214800F0E4FD200102D5D7
:1014D000204800F047FE61000CD51F4D1F48E96809
:1014E00000F0D8FD296A1E4800F0D4FDE9691D48C6
:1014F00000F0D0FDA20002D51B4800F033FEE3004F
:1015000002D51A4800F02EFEFFF7ACFF224600235A
:1015100040F25331164800F0BDFD40F25731154BF3
:10152000154A164800F06AFB38BD00BF00FC0F00EA
:101530003C500E58192E1070472E10706D2E1070E2
:10154000912E1070B12E107000200E58C92E107000
:1015500000300E58DE2E107000E00F58F62E10707E
:101560002A2F1070542F1070752F1070962F107036
:10157000B12F1070D82F1070613110704E2D107077
:10158000F8B5384B384C9D68236843B323685B68D3
:1015900033B940F2BA31354B354A364800F02EFBAC
:1015A00023685B681B8A5B070CD425F47F7020F0EE
:1015B0000300FFF759FF23689BB940F2DB312E4B44
:1015C0002B4AEAE723685868FFF738FF20B140F25A
:1015D000C7312A4B264AE0E725F08050E9E7284644
:1015E000E7E723685B681B8A13F0040323D12268B2
:1015F0005268D2682A4017D04FF0010C0A202168A7
:101600001F4EC96922FA03F7FF0707D51F0357F8D2
:1016100006E047F806E00CFA03F73943013803F116
:101620000103EFD12368D961BFF34F8F0D4B1D61CB
:10163000BFF34F8FF8BD23685868FFF7FFFE20B156
:1016400040F29A310D4B0F4AA7E7EB00ECD50E4B59
:10165000DA68DA602368DB69226843F00103D3614A
:10166000E2E700BF00100E58A8000034DA2F107017
:10167000753110704E2D1070C82C1070452D1070E3
:101680003C500E584731107000E00F58012908B542
:101690000AD1064800F01AF8044800F015F8BDE831
:1016A0000840024800F018B808BD00BFC000003470
:1016B00011B1022903D07047024800F00BB801486D
:1016C00000F006B8C000003400F09EB800F090B8FA
:1016D00000F092B800F094B81FB5094A13785BB1D6
:1016E00013690293D3680193936800935368016C64
:1016F0005278044800F0CEFC05B05DF804FB00BF52
:10170000AC0000342430107010B5D0E904406043C0
:101710000D4C0229247804FB04F4B0FBF4F010D043
:10172000012A14BF0422022282429FBFB0FBF2F0C2
:10173000420802EB0323B3FBF0F08CBF0020C0B2E1
:1017400010BD0122F0E700BF0E000034F0B50B46DB
:10175000064600240C2793E8070007FB04650134C4
:10176000032C85E80700F6D1F0BD70B506460C469F
:1017700001252346EAB2012130680135FFF7FAFC62
:10178000042D04F10404F4D170BD00000000000039
:1017900007EE101A05EE100A9FED0F4BB8EEC77B4F
:1017A00006EE102AB8EEC55B27EE047B9FED0C4BCE
:1017B000B8EEC66BA5EE047B9FED0B5BA6EE057B3A
:1017C000FCEEC77B82B0CDED017A9DF8040002B03B
:1017D000704700BFAFF3008062105839B4C8E23FD1
:1017E000894160E5D022D33FC976BE9F1A2FBD3F05
:1017F000036C013303647047436C013343647047E7
:10180000836C0133836470472DE9F04F05468DB03A
:1018100028B9AA480DB0BDE8F04F00F0A3BC00689D
:10182000002800F0B480DFF8F092A54C99F8003061
:10183000092B36D8DFE803F0053F4446484A87893C
:101840008B8D01226B461146FFF794FC0222012189
:1018500001AB2868FFF78EFC0322012102AB286848
:10186000FFF788FC01210022009B2846FFF74CFF70
:101870000A460646019B84F87C002846FFF744FF91
:101880000222074684F87D00029B2846FFF73CFFB2
:101890003946024684F87E003046FFF779FF84F827
:1018A0007F002378092B63D8DFE803F0747F8486F8
:1018B00088558A8C8E9083492846FFF756FFF0E7BB
:1018C0008149F9E78149F7E78149F5E701226B464C
:1018D0001146FFF74FFC0222012101AB2868FFF7F8
:1018E00049FC0322012102AB2868FFF743FC0221D7
:1018F0000022009B2846FFF707FF0122019B84F886
:10190000B00007462846FFF7FFFE0A46029B84F810
:10191000B10006462846FFF7F7FE84F8B20095F8B6
:101920006C300246042B02D06A4B1B7B23B93E4429
:10193000324484F8B320B4E731463846FFF728FF35
:1019400084F8B300ADE76449B6E76449B4E7644995
:10195000B2E76449B0E700234022CDE903325022C8
:10196000CDE907236022CDE905330993CDE90A23A8
:101970004FF0010803AF5FFA88F63B46324601217B
:101980002868FFF7ACFB18B3574800F0EBFB0DB02D
:10199000BDE8F08F00231022CDE90333CDE9072302
:1019A000CDE9053320220993E0E7504903A8FFF76A
:1019B000CDFEDDE74E49F9E74E49F7E74E49F5E739
:1019C0004E49F3E74E49F1E74E49EFE74E49EDE75F
:1019D000324601212868FFF7ADFB064608B14B48A7
:1019E000D3E708F10108B8F1040F07F10C07C2D1E1
:1019F00094F8588199F800B018F0050F0CBF012336
:101A00000023D5F840A094F859715B4508BFC4F88D
:101A1000E4A017F0050F0CBF062305239B457DD1DD
:101A2000C4F8ECA017F0060F0CBF052309239B4553
:101A30001ED1D4F8ECE0BEF1000F19D0344DC4E94A
:101A40001DEA05F1780CBCE80F000FC5BCE80F00DB
:101A50000FC5BCE80F000FC52846DCF80030342263
:101A600040F8483B002100F05DFC0023C4E93B3313
:101A700048EA07035A070BD5D4F85C3153453FBFFA
:101A800028F0040827F0040784F8588184F8597175
:101A9000204B94F858111A7889F8002022781A708F
:101AA0004B0703D494F859315F0761D5531CDBB25F
:101AB000092A38BF1E46267069E700BF5E301070E5
:101AC00048010034C8010034D4010034E00100347E
:101AD000EC010034A8020034FC0100340802003498
:101AE000140200342002003479301070F831107084
:101AF000EC311070E0311070D4311070C8311070BA
:101B0000BC311070B0311070A4311070A73010705B
:101B1000800100340C0000340D00003418F0060F72
:101B200014BF01230023BBEB830F7FF47BAFD4F8FA
:101B3000E4E0BEF1000F3FF475AF2F4DC4E91BEA9E
:101B400005F1780CBCE80F000FC5BCE80F000FC50D
:101B5000BCE80F000FC52846DCF80030342240F8FE
:101B6000483B002100F0DEFB0023C4E9393359E78C
:101B7000092A36D8DFE802F005353535111D35352F
:101B8000352A8D0734D4D80734D413F002062BD16C
:101B900011F0010F08BF09268DE7DA072AD413F0E8
:101BA000020621D1CB0786D411F0020F18BF0126FF
:101BB000F0E713F0020617D1CF073FF57CAF8D0792
:101BC00016D413F0010F18BF1646E3E7C8070DD46B
:101BD00089070DD4DA070DD413F0020F18BF0626BB
:101BE000D8E70132D6B266E7062664E7002662E748
:101BF000012660E705265EE74C0100341FB5144658
:101C00001A46094B05461B68D8684CB1074B009132
:101C10000749CDE901342B4600F00CFA00F00DFC29
:101C2000044B1C46F3E700BF1C000034D830107092
:101C3000E53010705D30107070B50F4E0C460546E3
:101C4000316811B900F0AAFB30602146284600F047
:101C5000A5FB431C03D14FF0FF34204670BDC41CCC
:101C600024F00304A042F8D0211A284600F096FB85
:101C70000130F2D1EFE700BFFC0400342DE9F84356
:101C8000CD1C064625F0030508350C2D38BF0C2564
:101C9000002D01DBA94204D90C2333600020BDE8EC
:101CA000F883DFF8D48000F069F8D8F800301C46DB
:101CB00044BB29463046FFF7BFFF431C044658D1BA
:101CC000D8F800402746002F43D1002C4BD0236882
:101CD0003946304604EB030900F060FB814542D1F0
:101CE000216830466D1A2946FFF7A6FF01303AD029
:101CF00023682B442360D8F800305A6862BBC8F8C8
:101D000000700FE02268521B20D40B2A17D96119EA
:101D1000A342256018BF5960636808BFC8F8001067
:101D200062514B60304600F02FF804F10B00231D88
:101D300020F00700C21A1CBF1B1AA350AFE762684D
:101D4000A3420CBFC8F800205A60EBE72346646842
:101D5000AEE73C467F68B6E71A465B68A342FBD114
:101D600000235360DEE70C233046336000F00CF8AC
:101D700094E70560D6E700BF00050034014800F095
:101D80005ABB00BF44060034014800F055BB00BFF9
:101D900044060034B1F90C202DE9F0411607054640
:101DA0000C4654D44B68002B02DC0B6C002B48DD36
:101DB000E66A002E45D0002312F480522F68216A73
:101DC0002B6030D0626DA389590705D56368D21A9C
:101DD000636B0BB1236CD21A0023E66A216A284692
:101DE000B047431CA38906D129681D292BD82A4A4C
:101DF000CA40D60727D50022D90462602269226032
:101E000004D5421C01D12B6803B96065616B2F605A
:101E1000B9B104F14403994202D0284600F014FB02
:101E2000002363630DE001232846B0470246501C9F
:101E3000C9D12B68002BC6D01D2B01D0162B1DD16C
:101E40002F60002021E043F040031BB21AE00F692D
:101E5000002FF6D093070E680F600CBF4B6900236C
:101E6000A6EB07088B60B8F1000FEADD43463A465F
:101E7000216A2846A66AB047002808DCB4F90C306D
:101E800043F040034FF0FF30A381BDE8F0810744E9
:101E9000A8EB0008E7E700BF0100402038B50B6958
:101EA00005460C4613B90025284638BD18B1036A0B
:101EB0000BB900F0A7F8B4F90C30002BF3D0626E28
:101EC000D00704D4990502D4A06D00F0B4FA2846D6
:101ED0002146FFF75FFF636E0546DA07E4D4A38966
:101EE0009B05E1D4A06D00F0A7FADDE7002310B553
:101EF00004468360818119464366C281082283615A
:101F0000C0E90033C0E904335C3000F00BFA0D4B3C
:101F1000246263620C4BA3620C4BE3620C4B2363A1
:101F20000C4B9C4206D003F16802944202D0D0339D
:101F30009C4205D104F15800BDE8104000F07ABA87
:101F400010BD00BF7521107097211070CF21107047
:101F5000F321107004050034024A0349034800F0DD
:101F60007BB800BF100000349D1E107020000034AC
:101F700041680C4B994210B5044601D0FFF78EFF23
:101F8000A168094B994202D02046FFF787FFE1681C
:101F9000064B994204D02046BDE81040FFF77EBFB3
:101FA00010BD00BF040500346C050034D4050034B6
:101FB00010B50B4B04210B4C0B4A20461A60002233
:101FC000FFF794FF04F1680001220921FFF78EFF5B
:101FD00004F1D00002221221BDE81040FFF786BFB5
:101FE0003C06003404050034591F1070014800F00D
:101FF00022BA00BF45060034014800F01DBA00BFF8
:102000004506003410B50446FFF7F0FF236A1BB104
:10201000BDE81040FFF7F0BF044B2362044B1B6880
:10202000002BF5D1FFF7C4FFF2E700BF711F10705E
:102030003C0600340EB403B503AB0146054853F823
:10204000042B0068019300F073FA02B05DF804EB12
:1020500003B070471C0000342DE9F843074688465A
:1020600014460026D4E90195B9F1010905D5246883
:10207000002CF7D13046BDE8F883AB89012B07D996
:10208000B5F90E30013303D029463846C047064320
:102090006835E9E70FB407B5064904AB086853F89B
:1020A000042B8168019300F043FA03B05DF804EB60
:1020B00004B070471C000034036A70B505460E4634
:1020C00084680BB9FFF79EFF636EDB0705D4A38915
:1020D000980502D4A06D00F0AEF9A389190702D5C6
:1020E0002369002B35D12146284600F0C5F880B37E
:1020F0004FF0FF35636EDA0705D4A3899B0502D440
:10210000A06D00F099F9284670BD002B04DAA26991
:102110009A4217DC0A2915D023685A1C22601970CC
:10212000A36816F8011F013BA3600029EDD1002B25
:1021300011DA22460A21284600F05FF80130D7D094
:102140000A25D7E72246284600F057F80130E7D1A4
:10215000CEE7013EE4E723685A1C22600A221A7087
:10216000EEE70000024B01461868FFF7A5BF00BF6D
:102170001C00003410B50C46B1F90E1000F0FCF84C
:102180000028ABBF636DA3891B1823F48053ACBF39
:102190006365A38110BD2DE9F0411F468B8905467B
:1021A0000C46DB05164605D502230022B1F90E10B8
:1021B00000F0D0F8A3893246B4F90E10284623F473
:1021C0008053A3813B46BDE8F04100F0F7B810B55D
:1021D0000C46B1F90E1000F0BDF8431CA38915BFE1
:1021E000606523F4805343F48053A38118BFA38117
:1021F00010BDB1F90E1000F09DB8F8B50E461446AA
:10220000054618B1036A0BB9FFF7FCFEA369A3608A
:10221000A3891A0701D5236943B92146284600F04E
:102220002BF818B14FF0FF373846F8BD2368F6B2E7
:1022300022693746981A6369834205DC214628469D
:10224000FFF72CFE0028EDD1A368013BA3602368B3
:102250005A1C22601E70431C62699A4204D0A389F2
:10226000DB07E1D50A2EDFD121462846FFF716FE0F
:102270000028D9D0D6E7000038B5294B05460C46D2
:10228000186818B1036A0BB9FFF7BCFEB4F90C303B
:10229000190722D4DA0607D409222A6043F0400342
:1022A0004FF0FF30A38133E0580712D5616B41B185
:1022B00004F14403994202D0284600F0C5F80023F7
:1022C0006363A38923F02403A3810023636023694C
:1022D0002360A38943F00803A38123694BB9A38931
:1022E00003F42073B3F5007F03D02146284600F0A5
:1022F000ECFBB4F90C3013F001020AD00022A2600A
:1023000062695242A261226942B913F08000C5D1CC
:1023100038BD990758BF6269A260F4E70020F7E76B
:102320001C00003402440346934200D1704703F876
:10233000011BF9E738B50023054D044608462B601C
:1023400000F074FC431C02D12B6803B1236038BD3C
:102350004006003438B50446064D084611460022B2
:102360002A601A4600F08AFC431C02D12B6803B194
:10237000236038BD4006003438B50446064D084693
:10238000114600222A601A4600F080FC431C02D14C
:102390002B6803B1236038BD4006003438B50023F4
:1023A000054D044608462B60FEF714FB431C02D182
:1023B0002B6803B1236038BD4006003438B50446AD
:1023C000064D0846114600222A601A4600F066FCB7
:1023D000431C02D12B6803B1236038BD4006003492
:1023E000014B1868704700BF1C00003470B50D4DDC
:1023F00000260D4C641BA410A64209D10B4D0026EB
:102400000B4C00F055FC641BA410A64205D170BD16
:1024100055F8043B01369847EEE755F8043B013682
:102420009847F2E7043210700432107004321070D2
:1024300008321070704770477047062008B500F0EA
:10244000A9FB012000F032FC38B50546002941D037
:1024500051F8043C0C1F002BB8BFE418FFF78EFCAA
:102460001D4A136833B9636014602846BDE83840DC
:10247000FFF78ABCA34208D9206821188B4201BF0C
:1024800019685B6809182160EDE71A465B680BB1B3
:10249000A342FAD911685018A0420BD12068014418
:1024A000501811608342E0D118685B68084453609B
:1024B0001060DAE702D90C232B60D6E720682118D8
:1024C0008B4202BF19685B680918636008BF21600E
:1024D0005460CAE738BD00BF000500349368013B73
:1024E000002B10B4936008DA9469A34201DB0A2937
:1024F00003D15DF8044BFFF780BE1368581C1060D1
:10250000084619705DF8044B7047F8B506460F464B
:102510001446D518AC4201D1002007E03A4614F821
:10252000011B3046FFF7DAFF431CF3D1F8BD000072
:102530002DE9F04F0D469DB014469846064618B159
:10254000036A0BB9FFF75EFD6B6ED90705D4AB8943
:102550009A0502D4A86DFFF76EFFAB891B0701D562
:102560002B699BB929463046FFF786FE70B16B6E2A
:10257000DC0704D54FF0FF301DB0BDE8F08FAB890C
:102580009805F7D4A86DFFF757FFF3E70023CDF8C0
:102590000C804FF00109DFF8B481099320238DF8F6
:1025A000293030238DF82A3023469A4613F8012B20
:1025B0000AB1252AF9D1BAEB040B0BD05B462246AF
:1025C00029463046FFF7A1FF013000F0A780099AA5
:1025D0005A4409929AF80030002B00F09F800023A3
:1025E0004FF0FF320AF1010A049307938DF853303C
:1025F0001A93CDE9052354460522544814F8011BCB
:1026000000F006FB049AD8B9D10644BF20238DF808
:102610005330130744BF2B238DF853309AF8003002
:102620002A2B15D0079A544600204FF00A0C214659
:1026300011F8013B303B092B4BD9B0B1079214E0A4
:10264000A0EB0803A24609FA03F313430493D2E76D
:10265000039B191D1B68002B0391BBBF5B4242F01B
:10266000020207930793B8BF049223782E2B0AD156
:1026700063782A2B32D1039B02341A1D1B6843EA6C
:10268000E37303920593DFF8D4A003222178504628
:1026900000F0BEFA38B1A0EB0A004022049B0134DE
:1026A00082401343049314F8011B062228488DF836
:1026B000281000F0ADFA00283FD0264B1BBB039B2F
:1026C000073323F0070308330393099B3B44099323
:1026D0006AE70CFB02320C460120A8E70023013414
:1026E0004FF00A0C19460593204610F8012B303A9A
:1026F000092A03D9002BC6D00591C4E70CFB0121A0
:1027000004460123F0E703AB2A4604A930460093B0
:10271000114BAFF300800746781CD6D16B6ED907FA
:1027200005D4AB899A0502D4A86DFFF785FEAB8965
:102730005B063FF51FAF09981EE703AB2A4604A9C5
:1027400030460093044B00F07DF8E4E7143110703C
:102750001E311070000000000B2510701A3110702F
:102760002DE9F047164698468A6807460B690C46DD
:10277000DDF820909342B8BF1346336091F84320B0
:102780000AB1013333602368990642BF33680233CC
:102790003360256815F0060506D104F1190AE368CF
:1027A00032689B1AAB422BDC94F843302268003B22
:1027B00018BF0123920630D404F143024146384643
:1027C000C847013023D023681A3454F80A2C03F088
:1027D0000603042B0ABF54F80E5C002533684FF043
:1027E000000608BFED1A54F8123C08BF25EAE5754B
:1027F0009342C4BF9B1AED18B5421AD1002008E0DD
:102800000123524641463846C847013003D14FF0B4
:10281000FF30BDE8F0870135C1E7E1185A1C3020D0
:102820000233224481F8430094F8451082F84310A3
:10283000C2E70123224641463846C8470130E6D068
:102840000136D9E72DE9FF470F7E914680460C46B9
:10285000782F9A460C9E01F1430207D8622F0AD8BE
:10286000002F00F0D180582F00F0B88004F142060C
:1028700084F842703AE0A7F16303152BF6D801A162
:1028800051F823F0DD281070F12810706D281070B9
:102890006D2810706D2810706D281070F128107060
:1028A0006D2810706D2810706D2810706D281070D4
:1028B000EF2910701B291070A92910706D28107055
:1028C0006D281070112A10706D2810701B2910705F
:1028D0006D2810706D281070B129107033681A1DA2
:1028E0001B68326004F1420684F8423001239CE008
:1028F00033682068191D3160060601D51D6803E0A4
:102900004506FBD5B3F90050002D03DA2D236D42A7
:1029100084F8433058480A2311E0216833680806D8
:1029200053F8045B02D4490648BFADB26F2F336041
:10293000514814BF0A230823002184F84310666815
:10294000002EA66005DB21682E4321F004012160E2
:102950004BD01646B5FBF3F103FB1157C75D06F8E4
:10296000017D2F460D46BB42F4D9082B0BD12368BD
:10297000DF0708D5236961689942DEBF302306F876
:10298000013C06F1FF36921B22614B4603AA214609
:102990004046CDF800A0FFF7E3FE01304AD14FF0EA
:1029A000FF3004B0BDE8F087236843F020032360C4
:1029B00078273248236884F845701F06316851F83B
:1029C000045B02D45F0648BFADB23160D90744BF93
:1029D00043F0200323601DB11023ADE72648E9E74B
:1029E000236823F020032360F6E71646BDE733682B
:1029F0002568181D616930602E061B6801D51960B5
:102A000002E06806FBD51980002316462361BCE767
:102A1000336800211A1D32601E686268304600F07B
:102A2000F7F808B1801B606063682361002384F8B5
:102A30004330AAE72369324649464046D047013031
:102A4000ADD023689B0713D4E068039B9842B8BFBE
:102A50001846A6E70123324649464046D047013092
:102A60009DD00135E36803995B1AAB42F2DCEBE7DA
:102A7000002504F11906F5E7253110703631107084
:102A800070B50C46B1F90E1096B0154600291E46D9
:102A90000CDAA389002113F0800F14BF40234FF4F8
:102AA0008063002031602B6016B070BD6A4600F074
:102AB00079F80028EDDB019901F47041A1F500538C
:102AC000594259414FF48063EBE78B89F7B59D0775
:102AD00006460C4607D504F1470323602361012312
:102AE000636103B0F0BD01AB6A46FFF7C9FF009F09
:102AF000054630463946FFF7C1F848B9B4F90C30FD
:102B00009A05EED423F0030343F00203A381E2E726
:102B1000A389206043F08003A381019BC4E90407DB
:102B20005BB1B4F90E10304600F04EF828B1A3891D
:102B300023F0030343F00103A381A3891D43A5816F
:102B4000CFE71F2938B505460C4604D91623036084
:102B50004FF0FF3038BDC26B12B152F821304BB983
:102B6000284600F053F8224601462846BDE8384082
:102B700000F03AB8012B0AD0591C03D11623036088
:102B80000120E7E70021204642F824109847002062
:102B9000E0E70000024B01461868FFF7D2BF00BF14
:102BA0001C00003438B50023064D04460846114683
:102BB0002B6000F043F8431C02D12B6803B1236063
:102BC00038BD00BF4006003438B50023054D04462B
:102BD00008462B6000F042F8431C02D12B6803B179
:102BE000236038BD4006003438B50023064D044646
:102BF000084611462B6000F039F8431C02D12B68BF
:102C000003B1236038BD00BF4006003400F01EB899
:102C1000C9B20346024410B59342184601D10020C0
:102C200003E0047801338C42F6D110BD024B5822E8
:102C30004FF0FF301A60704740060034024B5822B4
:102C40004FF0FF301A60704740060034024B5822A4
:102C50004FF0FF301A60704740060034024B582294
:102C600000201A60704700BF40060034024B582213
:102C70004FF0FF301A60704740060034024B582274
:102C80004FF0FF301A60704740060034024B582264
:102C90004FF0FF301A60704740060034024B582254
:102CA0004FF0FF301A60704740060034FEE7000026
:102CB000F8B500BFF8BC08BC9E467047F8B500BF29
:082CC000F8BC08BC9E467047F9
:102CC8005F5F6C6C5F63757272656E745F61746F61
:102CD8006E5F69705F6F776E657220213D202828CE
:102CE800766F6964202A2930290045706F6368422D
:102CF8006C6F636B5F497345706F6368426C6F629A
:102D080028656229002E2E2F4D6964646C657761F1
:102D18007265732F53542F41492F4E70752F6C6C69
:102D28005F61746F6E2F6C6C5F61746F6E5F4E4E77
:102D38005F696E746572666163652E6800656349D4
:102D480064203C2031002E2E2F4D6964646C657719
:102D5800617265732F53542F41492F4E70752F6C34
:102D68006C5F61746F6E2F6C6C5F61746F6E5F72F5
:102D7800756E74696D652E63006E6E5F696E73742F
:102D8800616E6365203D3D205F5F6C6C5F637572AB
:102D980072656E745F61746F6E5F69705F6F776E76
:102DA80065720045706F6368426C6F636B5F49734F
:102DB80045706F6368496E7465726E616C286562F0
:102DC80029207C7C2045706F6368426C6F636B5F61
:102DD800497345706F6368487962726964286562EF
:102DE80029207C7C20285F5F6C6C5F63757272653C
:102DF8006E745F61746F6E5F69705F6F776E657216
:102E080020213D206E6E5F696E7374616E63652963
:102E18000053747265616D696E6720656E67696ECF
:102E2800652023256C75206572726F7220696E7437
:102E38006572727570743A203078256C780A005380
:102E4800747265616D696E6720656E67696E65206D
:102E5800636F6D706C6574696F6E20696E746572EE
:102E68007275707400436F6E766F6C7574696F6EEF
:102E7800616C20616363656C657261746F7220694F
:102E88006E74657272757074005265636F6E6669F0
:102E980067757261626C6520627566666572206925
:102EA8006E746572727570740042757320696E7401
:102EB80065726661636520696E7465727275707497
:102EC800004255534946256C64204552523A2030F9
:102ED80078256C780A0053747265616D2073776980
:102EE80074636820696E74657272757074004570D9
:102EF8006F636820436F6E74726F6C6C65722045E7
:102F080052524F5220696E746572727570743A200D
:102F180045435F495251203D2030782530386C7840
:102F28000A0045706F636820436F6E74726F6C6C33
:102F38006572206F70636F646520636F756E74656A
:102F4800723A2030782530386C780A0045706F6303
:102F58006820436F6E74726F6C6C6572206C61626E
:102F6800656C3A2030782530386C780A0045706FE7
:102F7800636820436F6E74726F6C6C6572204E4F7D
:102F880041434B20696E74657272757074004570A8
:102F98006F636820436F6E74726F6C6C6572206922
:102FA8006E746572727570740041544F4E5F53545D
:102FB800445F49525148616E646C65722829402506
:102FC800643A20697271733D3078256C6C780A0018
:102FD80030005F5F6C6C5F63757272656E745F6101
:102FE800746F6E5F69705F6F776E65722D3E65787E
:102FF80065635F73746174652E63757272656E7450
:103008005F65706F63685F626C6F636B20213D2042
:103018002828766F6964202A293029004D65746153
:103028005B256C645D3A204C203D2025642C20549F
:1030380047203D20256C642C2047203D20256C64CA
:103048002C2045203D20256C642C204354203D2015
:10305800256C640D0A004552524F523A204953508C
:103068002068616E646C65206973204E554C4C0D68
:10307800004552524F523A2063616E27742073659F
:103088007420537461746973746963204578747229
:10309800616374696F6E20636F6E6669670D0045C2
:1030A80052524F523A2063616E277420656E6162F6
:1030B8006C6520537461746973746963204578740E
:1030C80072616374696F6E20636F6E6669670D0065
:1030D8002C2066756E6374696F6E3A200061737395
:1030E800657274696F6E2022257322206661696C8F
:1030F80065643A2066696C6520222573222C206C51
:10310800696E65202564257325730A00232D302BED
:103118002000686C4C0065666745464700303132D0
:103128003334353637383941424344454600303127
:103138003233343536373839616263646566005F27
:103148005F4C4C5F41544F4E5F52545F497271451A
:10315800706F6368426C6F62005F5F4C4C5F4154F4
:103168004F4E5F52545F497271457272004E50550E
:10317800305F49525148616E646C65720045706FEA
:103188006368426C6F636B5F45706F6368436F6E13
:1031980074726F6C6C6572556E6974008000000003
:1031A800700000000C0000008000000070000000AB
:1031B800080000008000000070000000040000000B
:1031C8008000000070000000000000008000000087
:1031D800300000000C0000008000000030000000FB
:1031E800080000008000000030000000040000001B
:0C31F8008000000030000000000000001B
:0432040075071070CA
:0432080051071070EA
:10320C000090D0030100000010000000090901002B
:10321C00000000000300000004050034200000340E
:10322C0000000000040500346C050034D4050034A3
:10323C000000000000000000000000000000000082
:10324C000000000000000000000000000000000072
:10325C000000000000000000000000000000000062
:0C326C0000000000000000000000000056
:103280007FE97FE9FDF700BD7FE97FE9FDF764BBDA
:10329000000000000000000000000000000000002E
:0400000570100CADBE
:00000001FF
