:020000043400C6
:10040000000020349D2F0034632900346529003416
:1004100067290034692900346B2900346D290034C0
:100420000000000000000000000000006F29003400
:10043000712900340000000073290034752900344C
:10044000F92F003400000000F92F0034F92F003498
:10045000F92F0034F92F0034F92F0034F92F00342C
:10046000F92F003400000000F92F0034F92F003478
:10047000F92F0034F92F0034F92F00340000000068
:10048000F92F003400000000F92F0034F92F003458
:10049000F92F0034F92F0034F92F0034F92F0034EC
:1004A000F92F0034F92F0034F92F0034F92F0034DC
:1004B000F92F0034F92F0034F92F0034F92F0034CC
:1004C000F92F0034F92F0034F92F0034F92F0034BC
:1004D0000000000000000000F92F0034F92F003464
:1004E000F92F0034000000000000000000000000B0
:1004F0000000000000000000F92F0034F92F003444
:100500007929003400000000000000000000000015
:10051000F92F0034A1A40034F92F0034F92F00344E
:10052000F92F0034F92F0034F92F0034F92F00345B
:10053000F92F0034F92F0034F92F0034F92F00344B
:10054000F92F0034F92F0034F92F0034F92F00343B
:10055000F92F0034F92F0034F92F0034F92F00342B
:0C07400000000000F92F0034F92F0034F5
:1007500010B5054C237833B9044B13B10448AFF3FB
:1007600000800123237010BD803C01340000000094
:100770009CF2003408B5034B1BB103490348AFF3A7
:10078000008008BD00000000843C01349CF200346D
:1007900010B5044690B060B10023074C402123708F
:1007A000A065064B6846064A0CF08CFF6846A36DB0
:1007B0009847204610B010BDA03C0134F03A0134F7
:1007C000BF090134002814BF01204FF0FF307047EB
:1007D00038220A23C0E9042364232D227821C0E9AA
:1007E000063240F2DC5230B5C0E9081241F27074B2
:1007F00042F6E062C0E90A420BA5D5E900450522B0
:100800004FF0000C026548F2E802C0E910C2012274
:10081000C0E90C4506A5D5E90045C0E91223C0E9A9
:100820000E4530BDAFF3008000000040E17A943FF8
:10083000000000E04D62703F10B5044620B1FFF7A4
:10084000C7FF0120207010BD4FF0FF30FBE72DE9FE
:10085000F0410E460446002800F0E18001780129AD
:100860000BD102210170A56CC4E90126B54208D262
:10087000616C914205D9A5604CE00229F3D00020BB
:1008800049E0D4F810C0B6EE005B07EE90CAB8EEAF
:10089000676A07EE903AB8EEE77BB7EEC66A37EEC6
:1008A000057B86EE070B216DB7EEC00B8B424BD25A
:1008B000F0EE007AB4EEE70AF1EE10FA44D4616C7F
:1008C000B7EE007A8A4220D2012A134638BF0123AC
:1008D00007EE903AF8EEE77A67EE807AFDEEE77A77
:1008E00017EE903A8B42C1BF07EE901AB8EEE76A56
:1008F00007EE902AF8EE676AC3BFC6EE267A0B466B
:1009000080EE270AB0EE470A6360B4EEC70AF1EE44
:1009100010FA02DC0120BDE8F081B7EEC00A0DF04C
:10092000F3FDB3EE047B20EE070B9FED3F7B20EE43
:10093000070BBDEEC00B10EE103AE26C334493424D
:10094000D4BFA360A260E5E7ACEB0307E16987EAE7
:10095000E770A0EBE770884247D8606AD4F814E0EB
:10096000A1690EEB0C08984507FB01F143D207EE95
:10097000900A9FED2F7AF8EEE77A67EE877A07EE16
:10098000101AF1EE676AB8EEC77AB4EEE67AF1EEC5
:1009900010FA04D5FDEEE77A17EE903A5942002995
:1009A000B8D0B54232D1606C904201D800292DDA1E
:1009B00002FB077707EE902A06EE907A0029B8EE40
:1009C000E77BB8EEE66B1EDA94ED0E5BA5EE067BD8
:1009D000BDEEC77B17EE102A236C9A42B8BF1A46A9
:1009E0008242D4BF6260606094E7216A88422CBF73
:1009F000E06AA06AB2E7ACEB0E0C9C458ADD81424E
:100A0000A8BF0146CBE794ED0C5BDFE70E44B5428F
:100A10003FF731AFE56CB542A8BF35462BE74FF045
:100A2000FF3078E7AFF300800000000000408F4007
:100A30009A99593F0000000090EDAD5A30B52DED68
:100A4000108B90EDA87BB5EEC05A89B08DED007B80
:100A5000F1EE10FA90EDA47B044691ED014A91ED80
:100A6000002A91ED02FB91ED04EB90ED123B90ED2D
:100A7000AACB90ED16BB8DED047B90EDA66B09DC47
:100A8000D0F8C832D64898474FF0FF3009B0BDECD7
:100A9000108B30BDB8EE444B9FEDC37BB8EE422BBC
:100AA00024EE077BB4EEC27BF1EE10FA0FDD90ED81
:100AB0001C7B9FEDBF1B37EE011B9FEDBF7BB4EE90
:100AC000C71BF1EE10FA37FE017B80ED1C7B9FED1A
:100AD000BC7B24EE074BB4EEC24BF1EE10FA10D5FE
:100AE00094ED1C7B9FEDB24B37EE447B9FEDB64BF4
:100AF000B4EEC47BF1EE10FA58BFB0EE474B84ED74
:100B00001C4B94F85050B7EEC55A012D64D19FED9F
:100B1000B07B3FEE4E4B84EE07DB3FEE0E4B84EE98
:100B200007ABB0EECD7BB4EEC75BF1EE10FAB0EEE2
:100B3000CA4B3CDBB4EEC45BF1EE10FA37DB0023AA
:100B400084F8783083EE0C9BBCEEC99BB8EE499BD1
:100B500029EE0C9B0022FCEEC95BB0EE498BCDED7B
:100B6000035A84F86020002B00F08C80F7EECB0B4A
:100B7000B7EEC70B8DED066B0EF036F8B2EE047BC8
:100B8000B7EEC00AB0EECE5B20EE070BB0EECF7B27
:100B9000B4EEC57BF1EE10FA9DED066B34DDB5EEDB
:100BA000C0FBF1EE10FA34D539EE400B33E0B4EE71
:100BB000C45BF1EE10FA25D58AEE0D4B94EDAE5ADA
:100BC000B0EEC44BB7EEC55AB4EEC54BF1EE10FA19
:100BD000B4BF01230023B5E7B0EECF7BB0EECE4B20
:100BE000B4EE474BF1EE10FA34FE077BB4EEC57B52
:100BF0009FED79ABF1EE10FAB0EE4ADB8CBF01232A
:100C000000239FE701239DE7B5EEC0EBF1EE10FA5C
:100C1000CAD539EE000B94ED3C7BB4EEC07BF1EE0F
:100C200010FA03D5B0EE46BBB0EE470B94ED3A7B1D
:100C3000B4EEC07BF1EE10FA03DDB0EE46BBB0EED1
:100C4000470B80EE0C8BBCEEC88BB8EE488B012DA9
:100C50002CEE088B16D1B4F8E030022B5FD8FCEEF6
:100C6000C97BB8EE677B04EBC30282ED207B82ED8B
:100C7000268B04EB0312013382ED2CDB82ED2EABCD
:100C8000A4F8E03094F878304BBB102204F18801CE
:100C900004F180008DED066B0CF022FE102204F1B1
:100CA000A00104F198000CF01BFED4E9302384ED80
:100CB000249BC4E92C23D4E9322384ED2A8BC4E994
:100CC0002E23D4E934239DED066BC4E93023D4E907
:100CD000362384ED34DB84ED36ABC4E93223FCEEFD
:100CE000C87B17EE903A94ED1A7B039AB5EEC07B61
:100CF00093421CBF012384F86030F1EE10FA71DDDD
:100D0000012384F860309DED007BB4EEC7BBF1EEAB
:100D100010FA79D59DED047B3BEE076B66E094ED10
:100D20002A7B94EDAF5A38EE477BB7EEC55AB0EE4A
:100D3000C77BB4EEC57BF1EE10FA2CDB94ED287B7B
:100D400038EE477BB0EEC77BB4EEC75BF1EE10FA2E
:100D500021DD94ED320B94ED307B3AEE400B3DEE0D
:100D6000477B20EE000BA7EE070B8DED066B0DF019
:100D7000FFFB94EDB07AB7EEC77AB4EEC70BF1EE95
:100D800010FA9DED066B06D5FCEEC97B84F8785011
:100D9000B8EE678B76E794F87830012B04BF002318
:100DA00084F878306EE700BF9A9999999999A93F8C
:100DB0007B14AE47E17A843F343333333333C33F5C
:100DC000333333333333C33F111111111111B13F99
:100DD000CD3B7F669EA0F63F0000000000000000B3
:100DE000D109013494F86030002B8CD188EE0C7B53
:100DF000BCEEC77BB8EE477B27EE0C7B84ED166B11
:100E000084ED127B012041E69DED006BEEE790ED55
:100E10001A6BB5EEC06B90ED124BF1EE10FA90ED3F
:100E2000AA5BB0EE467BDFBF84EE057BBCEEC77BE2
:100E3000B8EE477B27EE057BB7EEC77B90ED3C5BBA
:100E4000B7EEC74AB4EEC54BF1EE10FAC8BFB7EE25
:100E5000C57B90ED3A5BB7EEC74AB4EEC54BF1EEF9
:100E600010FA48BFB7EEC57BB7EEC75AD0F8743258
:100E700030B580ED125B93ED005AD0EDAC7AB4EE54
:100E8000C75AF1EE675AF1EE10FA4FF00001B0F8D0
:100E9000F83075FEA77A013B8AB2934205D8442206
:100EA00002FB030303F5907311E000EB8204D4ED21
:100EB000445A77EEA55AF4EEC75AF1EE10FA01F152
:100EC0000101E9DB442303FB020202F59073B5EE56
:100ED000C06BF1EE10FAC0F8743205DC93ED007AC5
:100EE000B7EEC77A80ED127B5A6803F13801426091
:100EF0009A6803F124048260DA68C2601A690261A8
:100F000000F138025D690C334561DD680C30C56065
:100F10001D69A342056151F8045B42F8045BF1D1FD
:100F2000012030BD10B5044690B070B10023084CCC
:100F300040212370C4F8C802064B6846064A0CF0EC
:100F4000C1FB6846D4F8C8329847204610B010BD9F
:100F5000003D0134F63A0134110A0134002814BF6F
:100F600001204FF0FF30704780ED000A30B50C686B
:100F700044604C6884608C68C460C96802F12404D1
:100F8000016100F1380115680C32456152F8085CC6
:100F90000C30C56052F8045CA242056153F8045B52
:100FA00041F8045BEFD130BD2DE9F04F2DED068BFC
:100FB0000E46B0EE409BB0EE418B1D460446C7B0D6
:100FC000002800F08F819FEDCCAB80ED12AB0020AC
:100FD000CF494FF00008C4E91601C4E9A601C4E9ED
:100FE000AA01CC49DFF86093C4F8B0124FF07E51EB
:100FF000C4F8B4124FF07C51C4E91A890FF20039D9
:10100000D9E90089C4E91C89C4E9A4894FF0000822
:10101000C4F8B812C049DFF83493C4F8BC124FF0DA
:101020007F510023C4E9A88901274FF00008C4F8C4
:10103000C012711EDFF8189388B20428C4E9A08991
:101040000FF2C429D9E9008984F86030C4E9A28983
:10105000A4F8E03084F87830A4F8787214D9052325
:101060004FF48071AD4A06A80CF02CFBD4F8C832BE
:1010700006A8984784F85070204647B0BDEC068B10
:10108000BDE8F04FFFF7C3BE95ED007AB7EEC77A23
:10109000B4EEC70BF1EE10FA12DDD4F8C832A04856
:1010A000984795ED007AB7EEC77A8DED009B8DEDF0
:1010B000027B9C4A4FF4807106A80CF003FBD5E735
:1010C0004FF0440C0CFB065818ED117AB7EEC77AB6
:1010D000B4EEC71BF1EE10FA41D5D4F8C8329248ED
:1010E000984798ED007AB7EEC77A8DED008B8DEDBD
:1010F000027B8E4ADEE70CFB08F705EB0709443755
:101100002F4499ED007AD7ED007AB4EEE77AF1EE4C
:1011100010FA08F1010A00F1010021DBD4F8C8320D
:101120008348984797ED007AB7EEC77A8DED047B38
:10113000CDF808A099ED007AB7EEC77A43468DED59
:10114000007B7C4A4FF4807106A80CF0BBFAD4F8FF
:10115000C83206A89847012384F850308CE7184617
:101160001FFA80F84145C6D800234FF0440CB01E4A
:101170009FB2B94239D884ED3A9B84ED3C8B002074
:10118000A4F8F86083B2994200F1010000F28B806C
:101190000027B84604F1FC0A04F5907905EB070B2B
:1011A00009EB0700442259460CF047FCDBF80030FD
:1011B00008F101084AF8043B1FFA88F39E4207F140
:1011C0004407EBD8731E9BB2002E03F1010314BF3A
:1011D0001A460122C4F8749204F5B271013A6AD138
:1011E000012384F85030237046E702EB8709B842A8
:1011F000D9ED007A4FEA870807F1010A1ED908F1F4
:101200000408904498ED007AB4EEE77AF1EE10FA13
:1012100014D8D4F8C8324848984798ED007AB7EE09
:10122000C77A8DED047BCDF808A099ED007AB7EE72
:10123000C77A3B468DED007B404A83E70CFB07F8FD
:1012400005EB080A9AED007AB4EEE77AF1EE10FAAF
:1012500008F14408A84408DA98ED007AB4EEE77A79
:10126000F1EE10FA03F1010382D8D4F8C832344801
:10127000984798ED007AB7EEC77A8DED047B9AED2A
:10128000007AB7EEC77A8DED027B99ED007AB7EE62
:10129000C77A3B468DED007B4FF48071294A06A842
:1012A0000CF010FA53E702EB83073F6804EB83036B
:1012B000C3F8107166E7D4F8743291ED006A93EDCB
:1012C000007AB7EEC66AB7EEC77A36EE4A6B37EEEB
:1012D0004A7BB4EEC76BF1EE10FA48BFC4F8741243
:1012E00044317BE74FF0FF3047B0BDEC068BBDE8E3
:1012F000F08F00BFAFF30080000000000088B34013
:101300009A9999999999B93F0000000000A06E4000
:101310000000F03F0000484200002F43210A013442
:10132000650A0134EC0A01344A0B0134D20B013452
:101330002F0C0134930C0134EB0C01345A0D0134A1
:10134000C40D01341B0E01340000F0BF0000084042
:101350000000244030B5054614468DB052B9D0F88F
:10136000C8321D489847D5F8C8321C4898472046CF
:101370000DB030BD93ED042B93ED021B93ED000BEC
:101380000AAA08A906A800F02FF8DDE90823CDE98C
:101390000223DDE90A23CDE9042301239842044610
:1013A000CDE90033DFD169462846FFF745FB012828
:1013B000044603D0D5F8C8320948D7E795F860301D
:1013C000012BD4D12846FFF722FD01280446CED0B8
:1013D000D5F8C8320348C9E7A10E0134020F013421
:1013E0002B0F01345F0F0134B5EEC00BF1EE10FA94
:1013F0001FB509D4B5EEC01BF1EE10FA04D4B5EE5A
:10140000C02BF1EE10FA0DD58DED022B8DED001BEA
:1014100053EC102B44480CF0E5F84FF0FF3005B0CA
:101420005DF804FB9FED327BB4EEC70BF1EE10FAD2
:1014300009DCB4EEC71BF1EE10FA04DCB4EEC72BE6
:10144000F1EE10FA07DD8DED022B8DED001B53EC54
:10145000102B3648DFE728B189B1B2B93449354B92
:10146000084607E071B133493148002A304A314B10
:1014700018BF1346024630480CF0B4F8CDE72C49AB
:101480002C48F2E72B490846EFE79FED1B7B9FEDC9
:101490001C6B21EE077BB3EE005BA0EE067B9FED9D
:1014A0001A6BA2EE057BA7EE065B9FED197B80ED24
:1014B000005B27EE417BBBEE0A5BA0EE057B9FED58
:1014C000165BA2EE057B27EE067B81ED007B9FED90
:1014D000147B27EE411BB2EE047BA0EE051BA2EEAF
:1014E000471B21EE061B012082ED001B97E700BF82
:1014F0000000000000E06F400000000000A063401A
:101500000000000000804740000000000000703F25
:1015100000000000008055400000000000005C401A
:1015200000000000008059409C0F0134DA0F0134A4
:10153000960F0134940F01341A1001347BB972B93B
:101540000029BEBF00204FF0004106E008BF002880
:101550001CBF6FF000414FF0FF3000F0FBB9ADF160
:10156000080C6DE904CE002909DB002B1ADB00F022
:101570004DF8DDF804E0DDE9022304B07047404295
:1015800061EB4101002B1BDB00F040F8DDF804E0CB
:10159000DDE9022304B0404261EB4101524263EBBA
:1015A00043037047524263EB430300F02FF8DDF82A
:1015B00004E0DDE9022304B0404261EB41017047E1
:1015C000524263EB430300F021F8DDF804E0DDE96B
:1015D000022304B0524263EB4303704753B94AB944
:1015E000002908BF00281CBF4FF0FF314FF0FF302B
:1015F00000F0B0B9ADF1080C6DE904CE00F006F8CA
:10160000DDF804E0DDE9022304B070472DE9F04F76
:10161000099D884604468E46002B4AD18A421746C9
:101620005FD9B2FA82F64EB1C6F1200301FA06FE86
:10163000B740B44020FA03F343EA0E0E4FEA1748CE
:101640001FFA87FC230CBEFBF8F108FB11EE01FB2F
:101650000CF243EA0E439A4207D9FB1801F1FF301E
:1016600002D29A4200F2548101469B1AA2B2B3FB05
:10167000F8F008FB103300FB0CFC42EA03429445EF
:101680000BD9BA1800F1FF332CBF01240024944574
:1016900002D9002C00F03F81184640EA0140A2EB3D
:1016A0000C0200211DB1F2400023C5E90023BDE872
:1016B000F08F8B4205D90DB1C5E900010021084624
:1016C000F5E7B3FA83F100294ED14345C0F012810A
:1016D000824240F20F810846002DE8D0C5E9004E55
:1016E000E5E7002A00F0AC80B2FA82F6002E40F066
:1016F000BB808B1A4FEA124EBCB20121020C80B2A1
:10170000B3FBFEFC0EFB1C3342EA034304FB0CF26A
:101710009A420ED9FB180CF1FF382CBF4FF001098B
:101720004FF000099A4203D9B9F1000F00F0EC80A4
:10173000C4469B1AB3FBFEF80EFB183304FB08F4F7
:1017400040EA034294420BD9BA1808F1FF332CBF88
:1017500001200020944202D9002800F0D180984650
:10176000121B48EA0C409DE7C1F120068B4008FAA5
:1017700001F400FA01F922FA06F728FA06F88A407D
:101780001F4320FA06F3380C23431FFA87FC1C0C76
:10179000B8FBF0FE00FB1E8844EA08440EFB0CF880
:1017A000A0450ED93C190EF1FF3A2CBF4FF0010BAA
:1017B0004FF0000BA04503D9BBF1000F00F0B8803B
:1017C000D646A4EB08041FFA83F8B4FBF0F300FB41
:1017D000134403FB0CFC48EA0444A4450ED93C190D
:1017E00003F1FF302CBF4FF001084FF00008A44573
:1017F00003D9B8F1000F00F09F80034643EA0E4082
:10180000A4EB0C04A0FB02EC64457346E04602D353
:1018100007D1F14505D2BEEB02036CEB070C013892
:10182000E0465DB1B9EB030264EB080404FA06F686
:1018300022FA01F3CC401E43C5E90064002136E7DB
:10184000B1FBF2FC010C144680B2964641EA084115
:101850002026904640EA01431046B1FBF2F1A3EB8B
:10186000080341EA0C414BE7B740C6F1200301FAF7
:1018700006F221FA03F84FEA174E20FA03F3BCB23E
:10188000B0401343020C190C80B2B8FBFEF90EFBFA
:10189000198841EA084109FB04F8884551D97918AB
:1018A00009F1FF3C2CBF4FF0010A4FF0000A8845B8
:1018B00002D9BAF1000F31D0A1EB0801B1FBFEF95A
:1018C00009FB04F80EFB19119BB243EA014343459F
:1018D00035D2FB1809F1FF312CBF4FF0010A4FF050
:1018E000000A4345BBD2BAF1000FB8D1A9F10201F9
:1018F0003B44B4E7841A68EB030201209646EBE60A
:101900003A44A8F102082BE7ACF1020C3B4410E783
:1019100002393B44A9E63A440238BEE6A7EB080880
:10192000A9F1020C4144B1FBFEF909FB04F8C9E737
:10193000AEF1020E3C4444E7023B3C445EE74946BC
:101940008DE7A1EB0801CC46B1FBFEF909FB04F8D9
:10195000B8E700BF704700BF07EE901AF8EE676A5D
:1019600007EE902A9FED196AB8EE677AC6EE865A9E
:10197000C7EE067AF4EE675AF1EE10FA48BFF0EEC1
:10198000657A67EE867AF4EEE76AF1EE10FAB4EE65
:10199000E77ACCBFFCEEE76AFCEEE66AF1EE10FAFD
:1019A00016EE903ACCBFBCEEE77ABCEEC77A0131B6
:1019B000C91A17EE103A0132D21A49085208C0ED7E
:1019C000006A80ED017A8160C26070470000F043D8
:1019D0002DE9F04F4FF0020895B007460E46154628
:1019E0000021142203A81C460BF094FF03A8CDF895
:1019F00020800AF0EBFD4FF4F072CDE909224FF49C
:101A0000707200234FF0010A4FF00309029210A8F0
:101A1000DDE90312CDE90D33CDE90BA8CDF83C90FB
:101A2000FFF79AFF02AA09A950460AF089FC039B16
:101A30001022019300230BA81946DDF810B00BF01B
:101A400069FF4FF480735A46019910A8CDE9093314
:101A5000CDE90C9ACDF83C90FFF77EFF4FF4407330
:101A6000404602AA09A902930AF06AFC0FB1074B8B
:101A70001F600EB1064B1E600DB1064B1D600CB110
:101A8000054B1C6015B0BDE8F08F00BFDC3F013492
:101A9000D83F0134D43F0134D03F01340A460146D7
:101AA00001200AF00FBD10B504460AF045FC23469C
:101AB000BDE810400022012102F057BF0AF0E2BD4C
:101AC00000B5E5B04FF4C872002168460BF022FF64
:101AD00018220023CDE900234FF400134FF080516A
:101AE00032930323CDE9221328236846259304F07B
:101AF000B9FC003818BF012065B05DF804FB000098
:101B000070B5434D86B01822002168460BF002FFE5
:101B10004FF4E112002128460BF0FCFEBFF34F8F7B
:101B20004FF4614E00234EF001E03A4AE918C2F842
:101B3000701220330FF007C0BFF34F8FBFF36F8FCA
:101B4000354C00212046354A0BF0E4FEBFF34F8FA1
:101B50004BF6803E00234EF001E02E4AE118C2F819
:101B6000701220330FF007C0BFF34F8FBFF36F8F9A
:101B700001F040FD642001F045FD00244FF4F076B3
:101B8000A0224FF420738DE85C0002234FF4E12281
:101B90000493234B69461B78204602FB03550595A9
:101BA00001F0BAFC0098019A1E4B121A02999A6031
:101BB000039A1860521A5960DA604FF4487301931F
:101BC00004230493184B6946012005930094029462
:101BD000039601F0A1FC0098019A144B121A029985
:101BE0009A60039A1860521A11485960DA6000F03E
:101BF000EBFD012000F018FE204600F08BFE0D48A2
:101C000000F040FE4FF0FF3000F034FE06B070BD33
:101C10000070179000ED00E00000009000701700C9
:101C2000143B0134F03F013400B80B90E03F013425
:101C30008C0301340C3B01344FF4E120024B1A7841
:101C4000024B00FB023070470040013400701790D7
:101C500010B50F4C0F4A2378013303F003032370B0
:101C60001378013303F00303137001F0D5FC2178DE
:101C70004FF4E124084B002204FB013104F0D5F9B4
:101C800001F0CAFCBDE810400022022104F0B1B905
:101C9000143B0134004001340070179008B505482A
:101CA000054B036001F03BFD18B1BDE8084000F0B2
:101CB0002FBD08BD0440013400FC0D580268074BDD
:101CC00082B09A4208D14FF08042054BC3F8602A97
:101CD000D3F860320193019B02B0704700FC0D58AD
:101CE0000080025610B500243048314B8AB0CDE94F
:101CF0000144CDE90344CDE90544CDE90744099405
:101D0000036001F083FE08B100F002FD18230021FA
:101D1000264801AACDE90233019401F019FF08B168
:101D200000F0F6FC01230024CDE905344FF4807364
:101D30001E4804A9049301F07DFE08B100F0E8FC00
:101D40000A230021194807AACDE90834079401F0B5
:101D500079FF08B100F0DCFC00221448114601F0C4
:101D60004DFF0121114801AA01F0F2FE08B100F077
:101D7000CFFC01210D4807AA01F064FF08B100F073
:101D8000C7FC22230221094801AA039301F0E0FEC7
:101D900008B100F0BDFC0221044807AA01F052FF7F
:101DA00008B100F0B5FC0AB010BD00BF104001340E
:101DB0000020005808B500230C480D4AC0E9133331
:101DC000C0E900230222C0E90223C0E9113202F077
:101DD0005EFF08B100F09CFC0121044803F02CF8E0
:101DE00018B1BDE8084000F093BC08BD1C400134A8
:101DF000001002580268074B82B09A4207D10222B3
:101E0000054BC3F8602AD3F860320193019B02B0FE
:101E1000704700BF0010025800800256044B82B089
:101E2000C3F85C0AD3F85C320193019B02B070479F
:101E3000008002562DE9F04786B01422002101A847
:101E40000BF068FD0820FFF7E9FF1020FFF7E6FF21
:101E50000220FFF7E3FF8020FFF7E0FF4FF4004090
:101E6000FFF7DCFF4FF48040FFF7D8FF4020FFF77B
:101E7000D5FF2020FFF7D2FF4FF40050FFF7CEFF31
:101E80000120012403264FF480680227DFF884A094
:101E90001F4DFFF7C3FF0246DFF87C9050464FF41A
:101EA000806103F0C7F928460022502103F0C2F9EF
:101EB00048460022082103F0BDF9012228464FF4CC
:101EC000806103F0B7F9504601A9CDE90184CDE95D
:101ED000037603F00FF85023284601A9CDE9013419
:101EE000CDE9034603F006F80823484601A9CDE9E9
:101EF0000134CDE9034602F0FDFF284601A9CDE9F2
:101F00000184CDE9037602F0F5FF06B0BDE8F08765
:101F100000180256001002560000025608B512487A
:101F2000124A134BC0E9002300230122C0E9043305
:101F3000C0E90232C0E90633036203F0DAFA08B1FD
:101F400000F0E6FB0021084803F0FAFC08B100F0BD
:101F5000DFFB0021044803F019FD18B1BDE808407B
:101F600000F0D6BB08BD00BF8440013400580050CB
:101F7000FFEDC03010B50446ECB01422002103A8D8
:101F80000BF0C8FC4FF4C872002108A80BF0C2FC8B
:101F90002268184B9A422BD100234FF40052CDE90E
:101FA0000823154B08A8439304F05CFA08B100F02D
:101FB000AFFB0823114C44F21002C4F85C3AD4F889
:101FC0005C3200210293029B1223CDE903230323F9
:101FD000CDE9051304230A4803A9079302F08AFFF9
:101FE0004FF48003C4F8643AD4F864320193019B3F
:101FF0006CB010BD005800500C0400070080025661
:10200000000C025608B50268094B9A420FD14FF4F2
:102010008002084B10210848C3F8642203F05AF8E4
:10202000BDE808404FF48041034803F053B808BDB1
:102030000058005000900256000C0256044B82B02B
:10204000C3F85C0AD3F85C320193019B02B070477D
:102050000080025630B59BB03422002168460BF058
:1020600059FC3422002400210DEB02000BF052FC3D
:102070003248334B4FF02F0EC0E900340223872241
:10208000C0E905E3222340F2A731C0E9072340F26B
:10209000022340F2CF35C0E9091340F20F23C0E913
:1020A0000244C0E90B530461848680F8364003F093
:1020B0000DFF08B100F02CFB4FF4F0730622CDE9C0
:1020C0000332FF224FF4C06CCDE9052407224FF400
:1020D0004875CDE907C2694600221848CDE9015488
:1020E000CDE9094500940B93ADF830408DF83240AE
:1020F00003F046FF08B100F00BFB4FF4F07208212B
:102100004FF4C060CDE9102107210023CDE914016F
:1021100018920A4801220DA9CDE90D35CDE91233F7
:10212000CDE916350F93ADF864308DF8663003F0C5
:1021300027FF08B100F0ECFA1BB030BDD8400134E5
:1021400000100058F0B50446EBB01422002101A89D
:102150000BF0E0FB4FF4C872002106A80BF0DAFB8D
:1021600022683A4B9A426ED100234FF08072CDE93B
:1021700006234FF000734C9318234FF000510DEBE2
:102180000300CDE9261304F06DF908B100F0C0FAA0
:1021900002242F4B2046C3F87C4AD3F87C32002619
:1021A0000093009BFFF74AFF8020FFF747FF2020A6
:1021B000FFF744FF0120FFF741FF4020FFF73EFFFC
:1021C00003250E2749F63243224801A9CDE90134FF
:1021D000CDE90365059702F08DFE10231E4801A985
:1021E000CDE90134CDE90365059702F083FE4FF494
:1021F00040731A4801A9CDE90134CDE9036505977B
:1022000002F078FE49F6A773154801A9CDE901341B
:10221000CDE90365059702F06DFE4BF206231148E8
:1022200001A9CDE90134CDE90365059702F062FE0D
:102230000123CDE901340A230A4801A9CDE9036548
:10224000059302F057FE6BB0F0BD00BF00100058C0
:102250000080025600040256001C0256001402566A
:10226000000002560018025608B5FFF7F1FCFFF710
:10227000E3FCBDE80840FFF716BC00007FB5D94B72
:102280001A6842F400521A601A6842F480521A60C6
:10229000A3F573435A6912F4003211D1BFF34F8F83
:1022A000BFF36F8FC3F85022BFF34F8FBFF36F8F11
:1022B0005A6942F400325A61BFF34F8FBFF36F8FF8
:1022C000C94A536913F4803328D1C2F88430BFF36C
:1022D0004F8F43F6E074D2F88030C3F3C900C3F3E4
:1022E0004E335B0100F1010E01464EF001E003EABE
:1022F000040646EA8175C2F8605201390FF007C83A
:10230000203B13F1200FEDD1BFF34F8F536943F4FE
:1023100080335361BFF34F8FBFF36F8F4FF400755E
:1023200001F0A4F9FFF786FDFFF7B8FC00F0F2F921
:10233000FFF7D8FCFFF73EFDFFF7F0FDFFF78AFE41
:1023400000F08CFC00F00CFD00F058FDA74B0224BF
:10235000C3F8585AD3F8583209200193019B03233C
:1023600002A9CDE9024307F031FB082002A907F0DA
:102370002DFB0A2002A907F029FB0B2002A907F078
:1023800025FB2021012003F07DFE40F201320121D6
:10239000974802F05DFF214640F20132944802F076
:1023A00057FF40F201320421914802F051FF40F200
:1023B000013208218E4802F04BFF40F20132202109
:1023C0008B4802F045FF40F201328021884802F03C
:1023D0003FFF40F201324FF48071854802F038FF30
:1023E000294640F20132824802F032FF40F20132C7
:1023F0004FF480617E4802F02BFF40F201324FF42F
:1024000000617B4802F024FF40F201324FF480511A
:10241000774802F01DFF214640F20132754802F074
:1024200017FF40F201324FF48061724802F010FF52
:1024300040F201324FF400616E4802F009FF40F2B1
:1024400001324FF480516B4802F002FF40F201323A
:102450004FF40041674802F0FBFE40F201321021C8
:10246000654802F0F5FE40F201324FF480416248C7
:1024700002F0EEFE40F201322021604802F0E8FE58
:1024800040F2013240215D4802F0E2FE40F20132AA
:102490004FF48061594802F0DBFE40F201324FF404
:1024A0008071574802F0D4FE294640F20132544868
:1024B00002F0CEFE40F201320121524802F0C8FE85
:1024C000214640F201324F4802F0C2FE40F2013292
:1024D00004214C4802F0BCFE40F201321021494870
:1024E00002F0B6FE40F201324021464802F0B0FE52
:1024F000294640F20132434802F0AAFE40F201327E
:102500004FF480613F4802F0A3FE40F201324FF4E5
:1025100080513C4802F09CFE40F201324FF40051E1
:10252000384802F095FE40F201324FF40041354840
:1025300002F08EFE40F201321021334802F088FE94
:1025400040F201320121314802F082FE214640F280
:1025500001322E4802F07CFE40F2013204212B4869
:1025600002F076FE40F201320821284802F070FEA7
:1025700040F201321021254802F06AFE40F2013299
:102580002021224802F064FE40F2013240211F481F
:1025900002F05EFE40F201324FF480711B4802F0FF
:1025A00057FE294640F20132184802F051FE40F22F
:1025B00001324FF48061154802F04AFE40F20132C8
:1025C0004FF40061114802F043FE40F20132012154
:1025D0000F4802F03DFE40F2013204210C4802F0A7
:1025E00037FE17E000E001E000ED00E00080025659
:1025F0000000025600040256000C0256001002565B
:102600000014025600180256001C025600340256EE
:102610000038025640F201321021394802F018FE0B
:1026200040F201322021364802F012FE40F201321F
:102630000121344802F00CFE214640F201323148BB
:1026400002F006FE40F2013204212E4802F000FEA4
:1026500040F2013208212B4802F0FAFD40F201322B
:102660001021284802F0F4FD40F2013220212548D3
:1026700002F0EEFD40F201324021224802F0E8FD76
:1026800040F2013280211F4802F0E2FD06240AF0E8
:10269000E3FC1D4D4FF48061284602F0D0FD502030
:1026A00001F008F8013CF5D1FFF72AFAFFF7C4FA68
:1026B0004FF4E122FF210BF02DF900F0ADFF0546AC
:1026C000FFF7BAFA22460146284603F0AEFC00F0B6
:1026D000A3FF2246022103F08CFC4FF4967000F019
:1026E000E9FF0A49234622462046FFF771F9FFF722
:1026F000A3FA2146FFF7D2F9FFF7E0F9FCE700BFA4
:1027000000380256003C0256001802566922003476
:1027100072B6FEE708B51148114B036003F01AFDCD
:1027200008B1FFF7F5FF0F480F4B036003F012FDF0
:1027300008B1FFF7EDFF0D480D4B036003F00AFDF4
:1027400008B1FFF7E5FF0B480B4B036003F002FDF8
:1027500018B1BDE80840FFF7DBBF08BDA441013454
:102760000031025298410134803102528C410134CF
:102770000032025280410134803202524FF48052C2
:10278000044B82B0C3F8542AD3F854320193019B0E
:1027900002B0704700800256C0B26DED81CF11B11A
:1027A00040B1012809D09FEC100A9FE80F90FDEC82
:1027B00081CF7447024B1960F5E7024BFBE700BF7E
:1027C000B4410134B041013470B50025144C0368A4
:1027D000026A23604368226263608368426AA3607E
:1027E000C368104EE3600369626223614369826AD1
:1027F0006361836906F11401A361C369C6E90355E6
:102800002846E361A2629847236A06F11801284628
:1028100098472846A36A06F11C01BDE87040184796
:10282000B8410134E441013470B5104E0546736A75
:10283000DBB10F4C014620699847B0B904EB451154
:10284000F3692069E56014319847E168336A04EB65
:102850004111206918319847E168B36A04EB4111CE
:1028600020691C31BDE87040184770BDB841013483
:10287000E4410134024AD3685B01D050704700BF85
:10288000E4410134024BDA6803EB4213986070476D
:10289000E4410134F7B51D4D0746E868089C05EB97
:1028A0004010D0F81CC01A48BCF1020F0669286914
:1028B0000CD165094FEA142C05F4FC650CF4784C36
:1028C00045EA0C05C4F3C4042C4304E0ED69012D72
:1028D00009D124F07F44CDE9003413460A46394635
:1028E000B04703B0F0BDBCF1040FF4D14FEA147C43
:1028F000C4F3031545EA0C354FEA142C0CF0F00C28
:10290000240B45EA0C0504F47064DDE7E44101346E
:10291000B841013407B50021064AD368009002EBA4
:1029200043120846D2E90523FFF7B4FF03B05DF870
:1029300004FB00BFE441013408B503F0F3FB0121BF
:10294000084603F0BFFB03F0F5FB0121022003F072
:10295000B9FB03F0F7FBBDE808400021032003F0BA
:10296000B1BBFEE7FEE7FEE7FEE7FEE7FEE77047E6
:102970007047704700F08CBE014801F0F2B900BF0B
:10298000104001340B4A0346116810B509B90A49D1
:102990001160106809490A4C0344091B8B4206D98F
:1029A0000BF016F80C2303604FF0FF3010BD1360DE
:1029B000FCE700BF24420134C8050D340000203478
:1029C000000800001E491F4AD1F88C3010B543F4AE
:1029D0004063C1F88C30536B23F0E05343F08053D5
:1029E00053630022184BC3F88022C3F88422C3F833
:1029F0008822C3F88C22C3F89022C3F89422C3F82B
:102A000098220122114B8B60114BC3F8782AD3F81E
:102A100078028C680F4803F5805304610069C3F89D
:102A20007822D1F888300C4A43F47003C1F888301A
:102A3000D2F8883043F47003C2F8883010BD00BF6C
:102A400000ED00E000EF00E000E100E000040034F1
:102A5000008002560080005600ED02E06E4BF0B59B
:102A60001A6A02F44012B2F5001F00F0B88006D8CE
:102A700062B99A6C694BC2F3C112D34003E0B2F55C
:102A8000401F0BD00023664A1360F0BD5B6C654AA3
:102A900013F4007F644B08BF1346F4E7D3F8C42057
:102AA00002F04052B2F1805F2AD0B2F1005F36D01E
:102AB000002A43D1D3F880703D0107F0E04100F1D6
:102AC0009680D3F88400D3F88820C7F30B2420F035
:102AD0007F400E46B6F1005FC2F3C265C7F30551F1
:102AE000C2F302624FD07CD8002E3CD000264A4B65
:102AF0004C4F5B6C13F4007F4B4B08BF3B4638E0F8
:102B0000D3F890703C0107F0E04170D4D3F8940002
:102B1000C7F30B24D3F8982020F07F40D9E7D3F8EF
:102B2000A070380107F0E04161D4D3F8A400C7F3E6
:102B30000B24D3F8A82020F07F40CAE7D3F8B07068
:102B40003A0107F0E04152D4D3F8B400C7F30B24A4
:102B5000D3F8B82020F07F40BBE70A460D46084670
:102B60000C464FF000662C4B9F6C2C4BC7F3C117E3
:102B7000FB404EB1284AD2F8C420C2F307420132CA
:102B8000B3FBF2F37FE7294B07EE100AB8EEC76AF2
:102B900007EE104A07EE903ADFED256AB8EEC77AE5
:102BA000F8EEE77AA6EE267A67EE877A07EE101A35
:102BB000B8EEC77AC7EE876A07EE905AB8EEE77AA2
:102BC00007EE902AF8EEE77A27EE277AC6EE877AA4
:102BD000FCEEE77A17EE903ACCE7144BCAE7134BBA
:102BE00051E7B6F1405F134B18BF0023CCE7B1F1BA
:102BF000005FF2D009D80029AFD000224FF0006664
:102C0000154610461446114671E7B1F1405F094B75
:102C100018BF0023AEE700BF008002560090D0032B
:102C2000183B013400093D000024F400006CDC0274
:102C3000000080330080BB006DED81CF00B5FFF751
:102C40000DFF054B5DF804EB18689FEC100A9FE838
:102C50000E90FDEC81CF7447183B013408B54FF45A
:102C6000E1331548154AC0E9002300230C22C0E9CE
:102C70000233C0E90523C0E90733C0E90933036122
:102C800007F0ECF808B1FFF743FD00210A4807F010
:102C900052F908B1FFF73CFD0021074807F06BF936
:102CA00008B1FFF735FD044807F02AF918B1BDE86F
:102CB0000840FFF72DBD08BD284201340010005226
:102CC00010B50446ECB01422002103A80AF022FE3D
:102CD0004FF4C872002108A80AF01CFE2268164BA7
:102CE0009A4227D14FF480730022CDE90823134B79
:102CF00008A85C9303F0B6FB08B1FFF709FD1022AA
:102D00000F4B1048C3F86C2AD3F86C120291029949
:102D1000C3F85C2AD3F85C3260220193019B022342
:102D2000CDE903230023CDE90533072303A9079346
:102D300002F0E0F86CB010BD001000523000060741
:102D40000080025600100256044B82B0C3F8600A9D
:102D5000D3F860320193019B02B0704700800256A5
:102D600010B51022002488B021460DEB0200CDE9F9
:102D7000014403940AF0CEFD04231E481E494FF07F
:102D8000806CC0E900131823C0E903C30223C0E923
:102D900005344FF44033C0E90A44C0E90834C0E9BF
:102DA0000C44C0E90E448460C46107F02BF908B1FB
:102DB000FFF7AEFC1023CDE90134012341F2883244
:102DC0000C4801A9039307F0F1F908B1FFF7A0FC43
:102DD00007230022CDE9043301230648CDE9062369
:102DE00004A941F2883207F0B9F908B1FFF790FC65
:102DF00008B010BD24430134005002581FB504220E
:102E00001548164900230124C0E900121822CDE913
:102E10000133C0E90233C0E90424C0E90633C0E944
:102E20000833C0E90A33C0E90C33C0E90E33039319
:102E300007F0E8F808B1FFF76BFC102341F2883285
:102E4000054801A9CDE90134039407F0AFF908B1B1
:102E5000FFF75EFC04B010BDC042013400A0025870
:102E6000F0B50446EDB01422002103A80AF052FD8B
:102E70004FF4C872002108A80AF04CFD23683E4AAE
:102E8000934244D14FF480030022CDE908233B4B09
:102E900008A8339303F0E6FA08B1FFF739FC384A83
:102EA00013680133012B136003D14FF40050FFF777
:102EB0004BFF4FF400422020FFF746FF314B022723
:102EC000C3F85C2AD3F85C2200260192019A4FF4E1
:102ED0008042C3F85C2AD3F85C32032500930924AE
:102EE000009BFF23284803A9CDE90337CDE90565F9
:102EF000079401F0FFFF3523CDE90565CDE90337E0
:102F00002248079403A901F0F5FF6DB0F0BD204AF7
:102F10009342FAD14FF400030022CDE908231D4B60
:102F200008A8349303F09EFA08B1FFF7F1FB144AA6
:102F300013680133012B136003D14FF40050FFF7E6
:102F400003FF4FF400524FF48050FFF7FDFE0D4B8E
:102F50000021C3F85C2AD3F85C3240F67F720293FA
:102F6000029B0223CDE903230323CDE905130923A3
:102F70000948079303A9C6E700500258140000034C
:102F8000BC42013400800256003C02560038025612
:102F900000A0025814040003003402560F4880F3C6
:102FA0000A880F488546FFF70DFD0E480E490F4A67
:102FB000002302E0D458C4500433C4188C42F9D31F
:102FC0000B4A0C4C002301E013600432A242FBD3F5
:102FD0000AF004FDFFF752F9FEE7000000F81F3485
:102FE000000020340C3B0134483C01340C3B0134DC
:102FF000803C0134C8050D34FEE7000008B5044BE1
:103000001A781AB901221A70FEF788FF002008BD4D
:103010008843013408B5064A137833B1013BDBB26B
:10302000137013B9034802F0B9FA002008BD00BFBD
:1030300088430134844001341FB54FF47A74009200
:10304000CDE901340A4602230146044802F0C0FAE1
:10305000003818BF0120404204B010BD8440013444
:103060001FB54FF47A740092CDE901340A46022369
:103070000146044802F086FB003818BF0120404298
:1030800004B010BD8440013400F00EBB70B534268E
:103090000D4D0E48AC682D6806FB0400846C05FBE2
:1030A0000211C06D24B950F8212000201A6070BDB3
:1030B000062C05BF01EB41010A5830F8112022F01F
:1030C0007F4218BF92B2F0E78C430134D8400134FC
:1030D000F0B534271D4C1E4EA06807FB0060D0F8E9
:1030E00048C0C56D206800FB0210BCF1000F03D181
:1030F00045F820300020F0BDBCF1060F22D15FFA68
:1031000083FC00EB4000033D00F805C0A568206883
:1031100007FB056500FB0210ED6D00EB4000C3F3FB
:10312000072C023D00F805C02068C3F3074300FBED
:103130000212A16802EB420207FB0166F16D013940
:103140005354D7E79BB225F81030D3E78C430134B2
:10315000D8400134024B00201B680B60704700BF51
:103160008C430134024B00205B680B60704700BF4A
:103170008C43013434200F4B0F4A996000FB01212E
:103180000A6E1A604A6E5A608A6C042A0BD0082AAA
:103190000CD0062A0BBF03220422012100210020AB
:1031A000C3E90312704702221146F8E70222042104
:1031B000F5E700BF8C430134D8400134024B0020B6
:1031C000DB680B60704700BF8C4301342DE9F3418D
:1031D0009046304A0F46D16806460229089C35D1F0
:1031E00040F2031C40F20F20C4F34515C4F3C4227F
:1031F0000CFB05F5424304F01F044443213517320C
:10320000AD0992092D02173445EA024545EA9415A5
:1032100045F07F444FF440321F4D2048C5E902136A
:10322000C5E90002284601F032FD78BB3B46324634
:1032300021462846CDF8008001F066FD30BB3221E2
:10324000284602B0BDE8F04101F078BD042917D14D
:10325000C4F3033202EB0210C4F3032202EB0212A6
:10326000120442EA006204F00F0000EB0010024377
:10327000C4F3031004F0F004044442EA0424C9E750
:10328000012914BF002144F07F44C3E702B0BDE828
:10329000F08100BF8C4301341C40013400100258FF
:1032A00073B50C4D0C462E69A86819462B68342559
:1032B00002FB0344084A5B1A05FB0022D06D079A03
:1032C00006FB04000092069AFFF780FF002002B080
:1032D00070BD00BF8C430134D840013473B50C4D30
:1032E00014462E69A8681A462B68342504FB03147B
:1032F0000849013B05FB0011C86D069906FB040057
:1033000000910121FFF762FF002002B070BD00BFF5
:103310008C430134D840013437B50C4619460B4B69
:1033200018681D6900FB024434209A68084B00FBB2
:103330000233D86D069B05FB040000930122002395
:10334000FFF744FF002003B030BD00BF8C430134C1
:10335000D8400134F7B51746194A0E46D4684FF4E1
:103360008031013C032C8CBF0022164A054698BFD1
:10337000125D1548154CC4E90001A260FF2100222E
:103380002046C4E91123E260E264216501F07FFC7C
:10339000A0B90121204601F04FFD78B90123324642
:1033A000009329463B46204601F0AEFC30B932215D
:1033B000204603B0BDE8F04001F0C0BC03B0F0BD52
:1033C0008C43013488030134001002581C4001343E
:1033D0002DE9F74F284E1C46F3681546013B032B99
:1033E000884688BF00234FF0340A98BF234A0D9FB8
:1033F00098BFD35CDFF88890DFF888B02F44BD42D7
:1034000003D1002003B0BDE8F08FB16830680AFB3B
:10341000019105FB008C3269C96D02FB0C1142431E
:10342000002A1DDD04F01F001044BFF34F8FE2435C
:1034300004EB000E724420385209203002F1010ED4
:10344000D8BF4FF0010EA4464EF001E0CBF868C2A1
:103450000CF1200C0FF007C0BFF34F8FBFF36F8F3D
:1034600020460C9A0193FFF775FF0C9B32690135DA
:1034700002FB0344019BC2E78C43013488030134FF
:10348000D840013400ED00E04FF0340C2DE9F84F46
:103490001F4F9D8B3C68BE6804FB02111D4A3C69AE
:1034A0000CFB0622D66DA5F12002072A04FB01665B
:1034B000D3F80A00D3F812A0D3F8169017D9A5F1C3
:1034C0001002072A8CBF4FF0010B4FF0020B4FF098
:1034D0000008ED080AFB05F509F1FF3205FB0200C3
:1034E0006D421C18C84505D10020BDE8F88F4FF08B
:1034F000000BECE731465B4620465246FFF72AFFB9
:103500003B6939682C4401FB036608F10108E9E7CF
:103510008C430134D840013470B5FF260C468EB080
:1035200024220021054605A80AF0F4F94FF4C06EE4
:1035300006960726A268E368206804939B1A6168D0
:103540000C932369CDE908E666690291022BA1EB91
:103550000001019003920A960B910AD1042305936E
:103560006B1E5A425A4101A9064802F009FD0EB0ED
:1035700070BD042B01D10823F1E7002BF0D0062306
:10358000EDE700BFD84001342DE9F04102280446A0
:1035900088461746034686B005D0012821D0042866
:1035A0000CBF0223042300260F4DC5E90343C5E9E0
:1035B0000087FEF7FFFBFEF74DFD0C4B69463046DA
:1035C000CDE90186CDE9037400960593FFF7A4FFCA
:1035D000012208210648AE6006B0BDE8F04101F0C6
:1035E00029BE0323DFE700BF8C430134A04301342D
:1035F000000002564FF4F0724FF448710220FFF7BA
:10360000C3BF0000024600B101220821014801F0B9
:1036100011BE00BF0000025600487047D840013478
:1036200038B50F4B05461A780AB9012038BD4FF45A
:103630007A73B3FBF2F30B4A1068B0FBF3F000F0BF
:10364000D5F804460028F0D10F2DEED802462946C1
:103650004FF0FF3000F088F8034B20461D60E5E78F
:103660001C3B0134183B0134203B013410B50320CE
:1036700000F068F8FFF7F2F90F20FFF7D1FF0446DA
:1036800018B9FFF759F9204610BD0124FBE70000E7
:10369000034A044B11681B780B441360704700BF4A
:1036A000A0FB0C341C3B0134014B1868704700BF71
:1036B000A0FB0C3438B50446FFF7F6FF0546631C43
:1036C0001EBF044B1B78E418FFF7EEFF431BA34219
:1036D000FAD338BD1C3B013438B50446E8B1036861
:1036E0005B68D90707D400202268A060136843F004
:1036F0000103136038BDFFF7D7FF054623685B68F9
:10370000DB07F0D5FFF7D0FF401B0128F6D923686F
:103710005B68DA07F2D41023A3600120EAE710B552
:10372000044660B103790BB9FEF7C8FA0023A36021
:10373000012323712046BDE81040FFF7CDBF0120D3
:1037400010BD000007490302CA6803F4E06322F4D5
:10375000E0621204120C134343F0BF6343F40033DE
:10376000CB60704700ED00E070B5184CE368C3F320
:103770000223C3F10705042D03F1040628BF042525
:10378000062E4FF0FF36A3F1030398BF002306FA7D
:1037900005F521EA05019E40002801FA03F122EA1D
:1037A0000602B8BF00F00F0041EA0203A8BF00F113
:1037B00060404FEA0313B8BF0438DBB2ABBF00F57B
:1037C0006140241880F80033237670BD00ED00E0DE
:1037D000002807DB01234109034A00F01F00834052
:1037E00042F82130704700BF00E100E00138B0F13D
:1037F000807F0BD24FF0E023F021054A586182F818
:1038000023100020072298611A6170470120704739
:1038100000ED00E0F8B51446036871BBD3F804244A
:1038200022F4C01242EAC442C3F80424234B022CFF
:103830001A6838D0032C39D0012C3AD142F040021A
:103840001A60FFF731FF4FF4003607461B4DA640C4
:10385000FFF72AFFC01BB0F57A7F2DD8D5F890303E
:1038600036EA0303F4D14FF488530020D5F88020C2
:10387000A3401343C5F88030F8BD0129D3F80428CC
:1038800006D122F4C01242EAC442C3F80428CDE7AC
:10389000520341BFD3F8042C22F4C01242EAC442BE
:1038A000C3F8042CC2E742F48062C9E742F48042C4
:1038B000C6E742F00402C3E70120DDE700600058DC
:1038C000012930B54FF00205046810D18571D4F894
:1038D00000190B43C4F80039C4F8C429D4F8F033F4
:1038E00043F4060343F02003C4F8F03330BD08442A
:1038F0004571D4F8001D0B43C4F8003DC4F8C42D35
:10390000D4F8F03343F00643ECE770B415461E4696
:1039100099B9022301684371D1F800253243C1F8F7
:103920000025C1F8C455D1F8F03370BC43F4064308
:1039300043F02003C1F8F033704770BCFFF7C0BFFD
:10394000022383710368D3F8042842F00042C3F8CD
:103950000428D3F8002942F00802C3F80029704770
:1039600069B90368D3F8042442F00042C3F8042480
:10397000D3F8002542F00802C3F80025704701295A
:1039800001D1FFF7DDBF0368D3F8042C42F00042F9
:10399000C3F8042CD3F8002D42F00802C3F8002D20
:1039A00070470000184B10B55A69C9B242F4803212
:1039B0005A611A6942F001021A615A6942F480326E
:1039C0005A6100221A615A615C695C611C6944F0A9
:1039D00001041C611A615C6944F480345C611C69F7
:1039E00044F001041C615C69044344F480345C616C
:1039F0001A615A61586901435961196941F001011D
:103A000019611A6110BD00BF0070005810B504465E
:103A100068B103790BB908F041FE0323002023713C
:103A200001236071A071E071A060237110BD0120BD
:103A3000FCE700002DE9F0410446FEB00D464FF4CE
:103A4000FC7268463F4909F0F8FF1CB901207EB0BE
:103A5000BDE8F081002DF9D03B4B1A6822F001023D
:103A60001A60696801291AD12A6842F404121A6797
:103A70001A6842F001021A60D3F8802042F0B04286
:103A800042F40412C3F880202A68B2F5807FD3F88C
:103A9000842054D1012908D142F01F0207E00229F5
:103AA000D4D12A6842F49012E1E742F4F852002699
:103AB000264CC3F884202368234F23F0020323609D
:103AC0007E602369012043F001032361FFF7F2FDCB
:103AD0002661D5F80880A3685DF8382023F4FE43FA
:103AE00043EA022343F02803A3603821082016028A
:103AF000FFF758FF1121E420FFF754FF0DEBC80337
:103B0000D3F80480E3204FEA182146F48036FFF70B
:103B100049FF46F02806E3205FFA88F1FFF742FFED
:103B2000A6602B680020B3F5807F0CBF07230F230E
:103B30007B60236843F002032360606087E742F400
:103B4000F852A9E7B8F2003400600058007000583D
:103B500030B558B152B10379013B012B3FD81468FD
:103B600024F48033B3F5003F02D1F9B1012039E0EC
:103B7000022914BF234600235568B4F5803F43EA69
:103B80000503056802D0B4F5003F04D102292AD00C
:103B9000926843EA022369B1012924D1D5F80418B7
:103BA000154A0A401A43C5F804280BE0B4F5403F13
:103BB0002346E1D10168104AD1F8044422401A4357
:103BC000C1F804240368D3F8042122F48042C3F826
:103BD0000421D3F8042242F00102C3F80422022394
:103BE0000371002030BDD5F8042C22F03F021343AE
:103BF000C5F8043CE6E700BFC0C0FCFFF0B10329F4
:103C000008D8DFE801F002090F150D4B120242F04F
:103C100001021A6100207047094B120242F00102B2
:103C20001A62F7E7064B120242F001021A63F1E74B
:103C3000034B120242F001021A64EBE701207047C5
:103C4000006000580346F0B500285FD0002A5DD020
:103C5000022902D19068062858D85C1860791D792D
:103C6000C0B2022DEEB251D110F0FB004ED1667100
:103C70001B68176849B9D3F8002522F003023A43BC
:103C8000C3F8002501236371F0BD0129D2E9015673
:103C900026D1D3F800291E4922F003023A43C3F883
:103CA0000029D3F8C02922F00F023243C3F8C029FB
:103CB000D3F8CC290A402A43C3F8CC29F21F012AA1
:103CC00006D8D3F8DC290A402A43C3F8DC29D9E70F
:103CD000092ED7D1D3F8DC290A4042EA5502F4E78D
:103CE000D3F8002D22F003023A43C3F8002DD3F895
:103CF000C02D22F00F023243C3F8C02DD3F8CC2DD3
:103D00006FF30E022A43C3F8CC2DBBE70120BBE7BB
:103D10000080FFFFF8B50E461F46044610B9012586
:103D20002846F8BD1D07FAD103684518D3F80432B8
:103D30006D79012DF3D1DB07F1D5FFF76BFD05465A
:103D40000028ECD1314620463A46069BFFF7DDFDC0
:103D500031462046FFF704FEE2E7704770477047A0
:103D60007047036870B5D3F8F86304467204D3F85B
:103D7000F05312D5690410D5D3F8F023002122F4B2
:103D80008042C3F8F023826842F0040282604FF45C
:103D90008042C3F8FC23FFF7E1FF72050AD56B05EB
:103DA00008D54FF48062236800212046C3F8FC2325
:103DB00007F010F9B00516D5A90514D52368D3F876
:103DC0000025520707D5D3F8F02322F40642C3F8A2
:103DD000F023012262714FF4007200212046C3F8E3
:103DE000FC2307F009F9F3050AD5E80508D54FF4D7
:103DF0008072236800212046C3F8FC23FFF7ADFF43
:103E0000310416D52A0414D523680021D3F8F023F1
:103E1000204622F40042C3F8F023A26842F00802D0
:103E2000A2604FF40042C3F8FC2304236371FFF740
:103E300096FFF3030AD5E80308D54FF480322368D0
:103E400001212046C3F8FC23FFF787FF71030AD541
:103E50006A0308D54FF48022236801212046C3F865
:103E6000FC2307F0B7F8B30316D5A80314D52368CD
:103E7000D3F80029510707D5D3F8F02322F406021E
:103E8000C3F8F0230122A2714FF400320121204631
:103E9000C3F8FC2307F0B0F8320216D52B0214D574
:103EA00023680121D3F8F023204622F40002C3F84E
:103EB000F023A26842F01002A2604FF40002C3F89F
:103EC000FC230423A371FFF74AFFF0010AD5E9019F
:103ED00008D54FF08072236802212046C3F8FC23E6
:103EE000FFF73BFF72010AD56B0108D54FF08062E6
:103EF000236802212046C3F8FC2307F06BF8B001C9
:103F000016D5A90114D52368D3F8002D520707D57B
:103F1000D3F8F02322F00642C3F8F0230122E27125
:103F20004FF0007202212046C3F8FC2307F064F82A
:103F3000002E16DA002D14DA23680221D3F8F023BC
:103F4000204622F00042C3F8F023A26842F020028B
:103F5000A2604FF00042C3F8FC230423E371FFF793
:103F6000FEFE700614D5690612D523682046D3F8E4
:103F7000F02322F04002C3F8F023A26842F00202CC
:103F8000A2604022C3F8FC2304232371FFF7E8FE5C
:103F9000B20614D5AB0612D523682046D3F8F02319
:103FA00022F02002C3F8F023A26842F00102A260CE
:103FB0002022C3F8FC2304232371FFF7D1FE70BD38
:103FC00010B500285BD0002A59D00379022B56D1B6
:103FD00009BB01682B4BD1F804010340B3F5804FB6
:103FE0004DD0D2E90043D1F8040543EA044300F080
:103FF000F0200343C1F80435D2E903349268234327
:10400000D1F8080543EA02431F4A02401343C1F8AE
:104010000835002010BD012917D1D2E900430168FD
:1040200043EA0443D1F8040900F0F0200343C1F847
:104030000439D1F80809D2E9024300F0F02243EA3A
:1040400004431343C1F80839E3E7022917D1D2E941
:104050000043016843EA0443D1F8040D00F0F02066
:104060000343C1F8043DD1F8080DD2E9024300F042
:10407000F02243EA04431343C1F8083DC9E7012095
:10408000C8E700BF0040FF0000F000B068B303794C
:10409000022B2AD179B90368154AD3F804110A40D2
:1040A000B2F5804F21D0D3F8082542F00042C3F882
:1040B00008250020704701290DD103680846D3F870
:1040C0002028B2F5004F11D0D3F8082942F0004261
:1040D000C3F80829EDE7022907D10268D2F8083DA4
:1040E00043F00043C2F8083DE3E70120704700BFFA
:1040F0000040FF00E8B141B90268D2F8083523F06A
:104100000043C2F8083500207047012907D1026832
:10411000D2F8083923F00043C2F80839F3E702293E
:1041200007D10268D2F8083D23F00043C2F8083DE9
:10413000E9E70120704790B18AB10379022B0ED1D3
:1041400001290CD1D2E9003200681343D0F83018AD
:1041500021F01E021343C0F83038002070470120C0
:10416000704750B1012908D102680020D2F83038D8
:1041700043F00103C2F83038704701207047F8B1AE
:104180000379022B1CD101290CD1D2E9003200683D
:104190001343D0F80C1921F01E021343C0F80C3958
:1041A0000020704702290BD1D2E900320068134386
:1041B000D0F80C1D21F01E021343C0F80C3DEFE7B0
:1041C00001207047A0B1012908D10268D2F80C394A
:1041D00043F00103C2F80C3900207047022907D1CF
:1041E0000268D2F80C3D43F00103C2F80C3DF3E73E
:1041F00001207047A0B1012908D10268D2F80C391A
:1042000023F00103C2F80C3900207047022907D1BE
:104210000268D2F80C3D23F00103C2F80C3DF3E72D
:104220000120704710B5002845D0002A43D00379FB
:10423000022B40D101291ED1D2E90441036841EA91
:104240000441D3F8100900F0FC200143C3F8101911
:10425000D2E9020141EA0041C3F81419D3F8181950
:10426000D2E9000201F0F02142EA00420A43C3F819
:104270001829002010BD02291DD1D2E9044103688C
:1042800041EA0441D3F8100D00F0FC200143C3F8CB
:10429000101DD2E9020141EA0041C3F8141DD3F810
:1042A000181DD2E9000201F0F02142EA00420A435F
:1042B000C3F8182DDDE70120DCE7A0B1012908D102
:1042C0000268D2F8103943F00043C2F810390020D8
:1042D0007047022907D10268D2F8103D43F000432D
:1042E000C2F8103DF3E701207047A0B1012908D1C1
:1042F0000268D2F8703943F00103C2F87039002027
:104300007047022907D10268D2F8703D43F00103DB
:10431000C2F8703DF3E701207047A0B1012908D130
:104320000268D2F8703923F00103C2F87039002016
:104330007047022907D10268D2F8703D23F00103CB
:10434000C2F8703DF3E701207047012905D10368E9
:10435000D3F8700900F001007047022903D1036807
:10436000D3F8700DF6E700207047000010B5C8B113
:10437000C2B1012916D1D2E903431B0743EA044322
:104380009468016823431468526843EA0453D1F8DF
:10439000700843EA0263044A024000201343C1F854
:1043A000703810BD0120FCE7F9FF888850B1012961
:1043B00008D102680020D2F8703843F00103C2F837
:1043C000703870470120704750B1012908D1026848
:1043D0000020D2F8703823F00103C2F8703870471B
:1043E0000120704778B101290DD1006843EA0233FA
:1043F000D0F8201821F4FF4222F07F021343C0F8C6
:104400002038002070470120704750B1012908D1A1
:1044100002680020D2F8203843F40043C2F8203864
:1044200070470120704750B1012908D1026800206F
:10443000D2F8203823F40043C2F820387047012016
:10444000704760B101290AD101680020D1F82438F1
:1044500023F00E0343EA4202C1F8242870470120EA
:10446000704750B1012908D102680020D2F82438E1
:1044700043F00103C2F8243870470120704750B15F
:10448000012908D102680020D2F8243823F0010362
:10449000C2F824387047012070470368D3F8240815
:1044A000C0F342007047012903BF0368D3F8240812
:1044B00000F001000020704758B152B10379022B7F
:1044C00007D103680020D3F82838C3F30B03136027
:1044D000704701207047000070B5002800F0A880E8
:1044E000002A00F0A580012940F0A280036814781A
:1044F000D3F88008517820F0060041EA8401014396
:10450000C3F88018B2F902108CB2C1F30A00002976
:10451000B2F90410B8BF0446C1F30A05002988B2F5
:10452000B8BF2846D3F8841801F0F821214341EAA6
:104530000041C3F88418B2F906108DB2C1F30A0025
:104540000029B2F90810B8BF0546C1F309000029D7
:104550008CB2B8BF0446D3F88818364801402943C6
:1045600041EA0441C3F88818B2F90C108DB2C1F3C6
:104570000A040029B2F90A10B8BF2546C1F30A0699
:1045800000298CB2B8BF3446D3F88C1801F0F8215A
:1045900041EA05412143C3F88C18B2F90E108DB2DF
:1045A000C1F30A040029B2F91010B8BF2546C1F3BF
:1045B000090600298CB2B8BF3446D3F890180140E0
:1045C000294341EA0441C3F89018B2F912108DB2A0
:1045D000C1F30A040029B2F91410B8BF2546C1F38B
:1045E0000A0600298CB2B8BF3446D3F8941801F0FB
:1045F000F821294341EA0441C3F89418B2F916108E
:10460000B2F91820C1F30A0500298CB2B8BF2C46B4
:10461000C2F30905002A91B2D3F89828B8BF2946F9
:1046200002400020224342EA0142C3F8982870BDAC
:104630000120FCE700F800FC50B1012908D1026814
:104640000020D2F8803843F00103C2F88038704768
:104650000120704750B1012908D102680020D2F82A
:10466000803823F00103C2F880387047012070477A
:1046700010B598B192B1012910D10068537814781F
:10468000D0F8401892781B0443EA046343EA0223FB
:10469000CAB21343C0F84038002010BD0120FCE727
:1046A00050B1012908D102680020D2F8403843F007
:1046B0000103C2F8403870470120704750B101290A
:1046C00008D102680020D2F8403823F00103C2F874
:1046D0004038704701207047012908D10368D3F89A
:1046E0004038190A9170190C1B0E517013707047E5
:1046F000012903BF0368D3F8400800F0010000203F
:10470000704710B530B32BB3012923D1D3E900147E
:104710009B682143012A43EA0103016809D0022A68
:1047200010D0D1F8582822F0FC021343C1F85838B1
:1047300006E0D1F8502822F0FC021343C1F85038AB
:10474000002010BDD1F8542822F0FC021343C1F818
:104750005438F5E70120F4E710B5D8B1D2B10129FA
:1047600018D1D2E90043016843EA0443D1F85C0858
:1047700000F0F0200343C1F85C38D1F86008D2E9BA
:10478000024300F0F022002043EA04431343C1F83F
:10479000603810BD0120FCE7E0B101291AD1012ADF
:1047A000036808D0022A0ED0D3F8582842F001023C
:1047B000C3F8582805E0D3F8502842F00102C3F8A6
:1047C000502800207047D3F8542842F00102C3F863
:1047D0005428F6E70120704750B1012908D102683A
:1047E0000020D2F8603843F00043C2F860387047C8
:1047F0000120704710B5F0B1EAB101291BD1016861
:1048000053781478D1F844081B056FF31E5043EA1F
:1048100004730343C1F84438D37890781B0543EA06
:1048200000731079527943EA0033002043EA0213FF
:10483000C1F8483810BD0120FCE750B1012908D16A
:1048400002680020D2F8443843F00103C2F844382B
:1048500070470120704750B1012908D1026800203B
:10486000D2F8443823F00103C2F8443870470120DD
:10487000704740B33AB3012925D101681078D1F8C7
:10488000A03823F4FC4343EA4023C1F8A0389378CE
:1048900050785B0443EA4063D07843EA40231079C0
:1048A00043EA4003C1F8A438937950795B0443EAA2
:1048B0004063D079127A43EA402343EA420300205E
:1048C000C1F8A83870470120704750B1012908D1BC
:1048D00002680020D2F8A03843F00103C2F8A038E3
:1048E00070470120704750B1012908D102680020AB
:1048F000D2F8A03823F00103C2F8A0387047012095
:104900007047B0B1012909D10168D1F8CC396FF3F2
:104910000E031A43C1F8CC2900207047022908D1A0
:104920000168D1F8CC3D6FF30E031A43C1F8CC2DCA
:10493000F2E701207047B0B1012909D10168D1F82F
:10494000C03923F00F031A43C1F8C0290020704773
:10495000022908D10168D1F8C03D23F00F031A43A2
:10496000C1F8C02DF2E70120704708B361B90168B2
:104970001AB9C1F8C43500207047D1F8C025D20358
:1049800016D5C1F8C835F6E7012907D1016812B973
:10499000C1F8C439EFE7C1F8C839ECE7022907D1FB
:1049A000016812B9C1F8C43DE5E7C1F8C83DE2E7C6
:1049B00001207047B8B10379022B08D1012908D131
:1049C0000268D2F8C03943F01003C2F8C0390020A1
:1049D0007047022907D10268D2F8C03D43F01003A6
:1049E000C2F8C03DF3E701207047B8B10379022B4C
:1049F00008D1012908D10268D2F8C03923F0100388
:104A0000C2F8C03900207047022907D10268D2F8E5
:104A1000C03D23F01003C2F8C03DF3E7012070470A
:104A200002290ED10368D3F8042CD3F804180A43E2
:104A300007D4D3F80428002022F48022C3F80428E5
:104A4000704701207047C8B1C3B1012916D1022AAD
:104A50000CD0032A0ED0012A01D000207047026832
:104A6000D2F8642822F07F421A60F6E70268D2F892
:104A70006828F7E70268D2F86C28F3E7012070474E
:104A8000012913D10168D1F8483818095071C3F3CE
:104A900002301071C3F302701B0D9070D370D1F807
:104AA0004438190DC3F3027351701370704700003E
:104AB000012970B540F08D800368D3F88018C1F3E8
:104AC000800001F0020110705170D3F88448414910
:104AD000C4F30A4040EA010514F0806F18BF28466D
:104AE000D3F884489080C4F30A0040EA010514F426
:104AF000806F18BF2846D3F8885850803648C5F3D1
:104B0000094444EA000615F0007F18BF3446D3F884
:104B100088581481C5F30A0444EA010615F4806F2D
:104B200018BF3446D3F88C58D480C5F30A4444EAFD
:104B3000010615F0806F18BF3446D3F88C58948165
:104B4000C5F30A0444EA010615F4806F18BF344621
:104B5000D3F890585481C5F3094444EA000615F08F
:104B6000007F18BF3446D3F890581482C5F30A0466
:104B700044EA010615F4806F18BF3446D3F89858FC
:104B8000D481C5F30944204315F0007F18BF0446C3
:104B90001483D3F89848C4F30A0040EA010514F4DA
:104BA000806F18BF2846D3F89448D082C4F30A40D7
:104BB00040EA010514F0806F18BF28469082D3F8B0
:104BC0009408C0F30A03194310F4806F18BF0B4612
:104BD000538270BD00F8FFFF00FCFFFF012903BFF7
:104BE0000368D3F8440800F0010000207047012951
:104BF00003BF0368D3F8800800F00100002070476D
:104C000000797047F0B50468059D666C45EA034578
:104C1000436806F040463543B3F5403F6564E263C0
:104C20002FD1806801F07F4601F47F0301F47F42B9
:104C3000CDB203281AD8DFE800F00402060E21F0F6
:104C40007F41A163F0BDD90C920AC90241EA421129
:104C500041EAD501F5E7DB0CD20A9B0243EA421395
:104C600043EAD503F10F43EAC131EAE71B0D120B0A
:104C70001B0243EA021343EA1513360F43EA0631D7
:104C8000DFE7B3F5802F0CBF6161E160DAE710B5B3
:104C90000446002836D090F8613003F0FF021BB9BB
:104CA00080F86020FDF7A6F8022384F861302368BD
:104CB000E0691968626821F4E021024321F04001B3
:104CC0000A431A60596BA069A26821F483710243F8
:104CD00021F001010A435A631A6CE1686FF30F0275
:104CE0000A431A64596BD4E90402520542EA00529D
:104CF00021F440110A435A6300200123606684F8BE
:104D0000613010BD0120FCE773B590F86050044697
:104D1000012D4FF002050FD0012680F86150069D4D
:104D200080F860600095FFF76DFF0020226813682F
:104D30003343136002B070BD2846FBE7002373B510
:104D40000193036804461B680D46DB0718D42268EC
:104D5000D369526A13439E0606D5FEF7A5FC0646A4
:104D600023685A68D2063FD51222236800209A6031
:104D7000012384F86130002384F8603002B070BDF4
:104D8000FEF792FC064623685A689207DFD45A68F9
:104D90000192019A12F0210F14D0019A950642BF98
:104DA000626E42F002026266019AD00742BF626EF2
:104DB00042F00102626621229A600423012084F8F5
:104DC0006130D8E7691CDFD0FEF76EFC801BA8427B
:104DD00001D8002DD7D1636E032043F02003636612
:104DE000032384F86130C6E75A680192019A12F0F1
:104DF000290F16D0019A160742BF626E42F00402D4
:104E00006266019A950642BF626E42F002026266D5
:104E1000019AD00742BF626E42F001026266292207
:104E2000CAE7691C9DD0FEF73FFC801BA842D2D880
:104E3000002D95D1CFE70000F0B590F86030024624
:104E4000012B4FF0020033D01C24012304FB01246A
:104E500082F8603082F86100A36BD4E90B601B0517
:104E6000676B43EA0043E06B334343EA4053A6F1E8
:104E7000090507F07F401843012D43EA076398BFF7
:104E800003461068A9B9446A1749012D01EA0401D3
:104E900041EA0301936A4162836103D8536B23F0B3
:104EA0007F4383620123002082F8613082F8600032
:104EB000F0BD0B2E03BF246C0C4E43EA84430C4E12
:104EC000C469012D24EA060443EA0403C3614FF0D8
:104ED0001C0303FB01218B6A03619EBF4B6B23F014
:104EE0007F430362DEE700BFF0FFCC000F003FFF0F
:104EF0000F0033FF2DE9F04F00224FF00F0A734CE3
:104F00000B6833FA02F501D1BDE8F08F012505FAEF
:104F100002F919EA030300F0C18003274E684FEA43
:104F2000420806F0030507FA08FE6F1E012F6FEA1C
:104F30000E0ED1F808C031D8876807EA0E0BCF688B
:104F400007FA08F747EA0B078760476827EA090965
:104F5000C6F30017974047EA09074760C7680CFA8D
:104F600008FC07EA0E074CEA0707022DC7601AD1B2
:104F70004FEAD20C00EB8C0C02F00709DCF8207031
:104F80004FEA89090AFA09FB27EA0B0B0F6907FAAE
:104F900009F747EA0B07CCF8207004E0032DDDD1B8
:104FA000BCF1010FDAD1076805FA08F507EA0E0728
:104FB0003D4316F4403F056070D022F0030707F12F
:104FC000AC4707F5143702F0030C3D6E4FEACC0CEA
:104FD0000AFA0CFE25EA0E0E3D4DA84260D005F5FA
:104FE0008065A8425ED005F58065A8425CD005F5D5
:104FF0008065A8425AD005F58065A84258D005F5CD
:105000008065A84256D005F58065A84254D005F5C4
:105010008065A84252D005F5C055A84250D005F58C
:105020008065A8424ED005F58065A8424CD005F5B4
:105030008065A84214BF10250B2505FA0CF545EA3A
:105040000E053D66D4F8805016F4803F25EA03072C
:1050500045EA030508BF3D46C4F88050D4F88450A3
:1050600016F4003F25EA030745EA030508BF3D465D
:10507000C4F88450256816F4801F25EA030745EA22
:10508000030508BF3D462560656816F4001F25EA44
:10509000030743EA050308BF3B46636001322FE77D
:1050A0000025CAE70125C8E70225C6E70325C4E7AE
:1050B0000425C2E70525C0E70625BEE70725BCE7AE
:1050C0000825BAE70925B8E70A25B6E700500256D1
:1050D000000002562DE9F04F00224FF0010A4FF078
:1050E0000F084FF0030B514C31FA02F301D1BDE828
:1050F000F08F0AFA02FC1CEA01067FD022F00305B9
:1051000005F1AC4505F5143502F003072B6EFF00E1
:1051100008FA07F909EA030E454B984270D003F5E7
:10512000806398426ED003F5806398426CD003F59B
:10513000806398426AD003F58063984268D003F593
:105140008063984266D003F58063984264D003F58B
:105150008063984262D003F5C053984260D003F553
:10516000806398425ED003F5806398425CD003F57B
:105170008063984214BF10230B23BB40734517D1A3
:10518000D4F8803023EA0603C4F88030D4F88430A1
:1051900023EA0603C4F88430236823EA0603236065
:1051A000636823EA060363602B6E23EA09032B6618
:1051B000036856000BFA06F633430360D30800EB8E
:1051C000830302F007051F6AAD0008FA05F527EA18
:1051D00005071F62876827EA06078760476827EA8E
:1051E0000C074760C76827EA0607C7601E6C26EAF7
:1051F00005061E649E6C26EA05059D64013273E770
:105200000023BAE70123B8E70223B6E70323B4E794
:105210000423B2E70523B0E70623AEE70723ACE794
:105220000823AAE70923A8E70A23A6E700500256A5
:10523000000002560AB1816170478162704743697C
:1052400001EA030221EA030141EA02418161704758
:1052500010B540F201149443036B09D10B4340F2A3
:10526000022403639443436B09D10B43436310BD92
:1052700023EA010412F4807F18BF2346EFE723EAF4
:10528000010112F4007F18BF0B46EFE703689A692B
:10529000910744BF00229A629A69D2075EBF9A6959
:1052A00042F001029A61704730B5039D04682B43B8
:1052B00043EA0243064A6068C1F309010B4342EA2C
:1052C000555223F0004320EA02000343636030BDDF
:1052D000FF63FF0303682DE9F0419C69054614F064
:1052E00010040F4616466FD000241022A046DA6143
:1052F0002B689A69900661D4B8F1000F35D001206F
:1053000044F004042E68B369D90541BF4FF480729C
:105310000120F26144F001045A0541BF4FF480625C
:10532000012044F00804F2619B054FD54FF400734F
:1053300044F00204F3612846FFF7A8FF73680120D8
:1053400023F0FF7323F48B3323F4FF7323F0010363
:1053500073606B6C23436B64202385F8413000231A
:1053600085F8423085F8403032E07A1CC1D0FEF733
:105370009BF9801BB84201D8002FB9D12B6859681E
:1053800095F842209869D2B200040AD5490408D49D
:10539000202A06D05A6842F480425A60FEF784F907
:1053A00006462B689B699B06A2D4FEF77DF9801BFD
:1053B0001928F6D920244FF0010899E7B8F1000F19
:1053C0009DD12022DA619AE720469BE70028B2D1DE
:1053D000BDE8F08170B504460D46164623689B690A
:1053E0009B0701D500201FE0324629462046FFF7E3
:1053F00071FFC0B96A1CF1D0FEF756F9801BA842B4
:1054000001D8002DEAD123689B6913F00203E5D18E
:10541000626C84F8403042F020026264202284F8FA
:10542000412084F84230012070BD2DE9F04104464E
:105430000F4616461D46DDF8188023689B6937EA3B
:1054400003030CBF01230023B34201D0002025E059
:10545000424629462046FFF73DFFF0B96B1CECD0D1
:10546000FEF722F9A0EB0800A84201D8002DE4D1F4
:1054700023689B6937EA03030CBF01230023B3426F
:10548000DBD1636C43F020036364202384F8413054
:10549000002384F8423084F840300120BDE8F081D8
:1054A00070B504460D46164623689B699B0601D5D8
:1054B00000201DE0324629462046FFF70BFFB0B919
:1054C000FEF7F2F8801BA84201D8002DECD123682A
:1054D0009B6913F02003E7D1626C84F8403042F0FE
:1054E00020026264202284F8412084F842300120A6
:1054F00070BD10B5044600284ED090F8413003F03E
:10550000FF021BB980F84020FCF734FD242384F807
:10551000413023681A6822F001021A60626822F0A2
:1055200070621A619A6822F400429A60D4E90221FA
:10553000012906D142F400429A605A6822F40062BE
:1055400007E042F4044202299A60F6D15A6842F414
:1055500000625A605A68002042F0007242F4004231
:105560005A60DA6822F40042DA60D4E904210A437E
:10557000A16942EA0122DA60D4E907210A431A60EC
:105580001A6842F001021A602023606484F84130F6
:10559000206384F8420010BD0120FCE710B50446EA
:1055A00098B12423026880F84130136823F0010386
:1055B0001360FCF727FD0020606484F8400084F845
:1055C0004100206384F8420010BD0120FCE7000088
:1055D0002DE9F74F994690F841300446202B0F46AD
:1055E0001646BDF834A0DDF8388040F0C6800C9B2C
:1055F00013B1BAF1000F06D14FF4007363640120B8
:1056000003B0BDE8F08F90F84030012B00F0B5807A
:105610004FF0010B80F840B0FEF746F8192305461D
:1056200000905A464FF400412046FFF7FEFE002846
:10563000E5D1212384F84130402384F842300C9B8B
:10564000606463624E4B606339462046A4F82AA02A
:105650005FFA89F200934FF08073FFF725FE2A4628
:1056600041462046FFF7B6FE18BBB9F1010F23688B
:1056700015D1F6B29E620022434680212046009555
:10568000FFF7D3FEA8B9638D9BB2FF2B15D8628DAF
:105690004FF0007392B222850090D2B212E0320A2B
:1056A0009A6241462A462046FFF794FE08B92368CD
:1056B000DFE7002384F84030A1E7FF224FF080733A
:1056C0002285009039462046FFF7EEFD2A464146E6
:1056D0002046FFF77FFE002891D1636A226813F805
:1056E000011B91626362638D228D013B9BB26385D6
:1056F000638D013A92B29BB22285B3B1AAB94346F7
:10570000802120460095FFF790FE00287FF477AFB8
:10571000638D9BB2FF2B28D9FF224FF08073228527
:10572000009039462046FFF7BFFD638D9BB2002BEA
:10573000CCD12A4641462046FFF7B2FE00287FF42E
:105740005EAF20212368D9615A6822F0FF7222F4EB
:105750008B3222F4FF7222F001025A6084F8411069
:1057600084F8400084F842004AE7628D4FF00073ED
:1057700092B222850090D2B2D3E7022040E700BF68
:10578000002000802DE9F74F994690F841300446FB
:10579000202B0F461646BDF834A0DDF8388040F0C7
:1057A000C9800C9B13B1BAF1000F06D14FF40073FE
:1057B0006364012003B0BDE8F08F90F84030012B06
:1057C00000F0B8804FF0010B80F840B0FDF76CFF9F
:1057D0001923009005465A464FF400412046FFF732
:1057E00024FE03460028E4D1222284F841204022EE
:1057F00084F842200C9A606462624F4A60633946C2
:105800002046A4F82AA000925FFA89F2FFF74CFD27
:105810002A4641462046FFF7DDFD20BBB9F1010FC6
:10582000236816D1F6B29E620022434640212046EC
:105830000095FFF7FAFDB0B9638D9BB2FF2B3F4B8C
:1058400015D8628D92B222850093D2B24FF00073C8
:1058500012E0320A9A6241462A462046FFF7BAFD14
:1058600008B92368DEE7002384F84030A1E7FF226F
:10587000228500934FF0807339462046FFF714FDD0
:1058800043460022042120460095FFF7CEFD002864
:105890008FD123685A6A636A1A70636A228D013352
:1058A0006362638D013A013B9BB26385638D92B263
:1058B0009BB22285B3B1AAB9434680212046009508
:1058C000FFF7B3FD00287FF474AF638D9BB2FF2B0D
:1058D00028D9FF224FF08073228500903946204658
:1058E000FFF7E2FC638D9BB2002BC9D12A464146EB
:1058F0002046FFF7D5FD00287FF45BAF2021236809
:10590000D9615A6822F0FF7222F48B3222F4FF72BE
:1059100022F001025A6084F8411084F8400084F8B3
:10592000420047E7628D4FF0007392B222850090EB
:10593000D2B2D3E702203DE700200080002400809F
:1059400010B590F841200346202AD4B21CD190F81B
:105950004020012A18D0242280F8412002681068D3
:1059600020F001001060106820F480501060106872
:10597000014300201160116841F00101116083F8BA
:10598000414083F8400010BD0220FCE710B590F8BC
:1059900041200346202AD4B21BD190F84020012A8E
:1059A00017D0242280F841200268106820F00100FE
:1059B0001060106820F4706040EA0121002011603E
:1059C000116841F00101116083F8414083F8400003
:1059D00010BD0220FCE72DE9F04F342687B0DDF83A
:1059E00040C0046806FB0C06D6F848E0CDE9022367
:1059F000756E0CF1010304EB0323BEF1030FDD63AD
:105A00004CD80426342707FB0C00D4F80CC0D0F87F
:105A100038B0E768D0F83C800BF10109C7F30B47B9
:105A2000CCF30B4C4F44C44447EA0C471F61476C0E
:105A3000026C0497E768E4680592C4F30B0C541CED
:105A4000049AC7F30B076444174444EA0744C26D41
:105A50005C61A8EB0B0404FB06F90192039A006E4B
:105A6000032A00FB06FC09F1070A45D140F20D1696
:105A7000019AB6455A632AD040F20D26B64531D078
:105A80004AEA0C429A63DA6822F4807222F0010238
:105A900042F00102DA6007B0BDE8F08FAEF1040712
:105AA000092F4FF00106ADD840F29B2906FA07F8FE
:105AB00018EA090F07D1022F07D0082FA2D19E6F35
:105AC000C6F382469EE702269CE703269AE708F182
:105AD0000702A2EB0B0242EA004219649A646D08C5
:105AE000DD64CDE76408029A4008073444EA0044C4
:105AF00019645A649C64F2E7039A3ABB019A571EF0
:105B00004F445F6340F20D17BE450AD040F20D27A7
:105B1000BE4510D04AEA0C429A63DA6842F48072B9
:105B2000B6E7013949441964073444EA00446D0872
:105B30009C64DD64EEE764086643029A0139013A29
:105B400031443244196440085A64EDE7DDE9042722
:105B5000A2EB0708039ACCF5004C012A4AEA0C4C48
:105B600031D1019A08F1FF3A09FB0A275F6340F23D
:105B70000D17BE4506D040F20D27BE450DD0C3F827
:105B800038C080E74FEA5802013A09FB02121A6452
:105B9000C3F848C06D08DD64F1E7640874434FEA58
:105BA0005808400808F1FF38C0F5004004FB08F829
:105BB0007043029A07344144424444EA0044196461
:105BC0005A649C64E6E7019A571E09FB08775F63F5
:105BD00040F20D17BE4506D040F20D27BE450DD050
:105BE000C3F838C099E74FEA5808013909FB081192
:105BF0001964C3F848C06D08DD64F1E764087443B4
:105C000040084FEA5808C0F5004004FB08F870430C
:105C1000029A0139013A07344244414444EA0044BB
:105C200019645A649C64DA6C6FF30F02DA64E2E779
:105C300002684B1C02EB0322342303FB0101086DB5
:105C400091F8683043EA006391F8690043EA002361
:105C500091F86A0043EA00435362136A23F0FF039A
:105C60001362CB6C1362906A054B03409362906A97
:105C7000D1E915310B4300F480310B439362704737
:105C8000F8F8FEFF342303FB01039A6CF0B5D41F30
:105C9000042C23D8164ADFF86CC0165D154A164B43
:105CA000175D164A1B5D155D154A9B04125D1CF8B5
:105CB000044001F1010C01680720520202EB853219
:105CC0003A4403EB853301EB0C2102EB46122344EB
:105CD000C86103EB45134A678B67F0BD062AFCD801
:105CE0000368013103EB01210023CA614B67F3E72D
:105CF000CC030134C7030134D1030134C20301349E
:105D0000BD030134B80301342DE9F0438C460799F3
:105D100005684C1C05EB0425EC6804F4807EAC6B34
:105D200004F08048342404FB0104A66C032E13D82D
:105D30000424B8F1000F53D13427BEF1000F23D152
:105D4000032407FB0107CCF800406C6B296CFC6551
:105D500011606A6C1A602DE0043E092E4FF00104B8
:105D6000E7D840F29B2904FA06F717EA090F07D192
:105D7000022E07D0082EDCD1AC6FC4F38244D8E7E2
:105D80000224D6E70324D4E7CCF8008040F20D1CAF
:105D900007FB0100D0E90E71C91B04FB01F76E6B14
:105DA0000136F61BC665866C664505D040F20D27A8
:105DB000BE4206D0BDE8F0832B6C0133DB1B1360C1
:105DC000F8E72E6C4908013604FB116111606A6C1A
:105DD000D0E90E01091A0132490804FB1122B9E782
:105DE0003426BEF1000F38D1012706FB0106CCF89E
:105DF0000070D6E90E10401A00FB04FCD6E910171B
:105E0000D5F83480791A01F1FF3E0CFB1E8740F271
:105E10000D1EF765B76C774519D040F20D2C67451C
:105E2000C8D149084008013941432F6C04FB117166
:105E30001160D6E91012521A686C5208D6E90E5158
:105E4000491B013A49084A4304FB120282E72B6CC2
:105E5000490801390CFB1133B1E7022706FB0100A9
:105E6000CCF80070D5F834E0D0E90E61891BD0E998
:105E70001076F71B0EF1010640F20D1E01FB04FC2B
:105E800007FB1C66C665866C764519D040F20D2C62
:105E900066458FD149087F0879432E6C013604FB93
:105EA00011611160696CD0E90E52521BD0E91005E6
:105EB000281A520840084243013104FB121249E7F4
:105EC0002B6C7F0801330CFB173378E738B5044699
:105ED000002853D090F8A13003F0FF021BB980F8DE
:105EE000A020FCF72FF9022384F8A13023689A69D7
:105EF00022F070429A61D4E901200243E068996976
:105F00000243206902430A439A61D4E9051242EA36
:105F100001429A60D4E9071242EA0142DA60D4E908
:105F2000091242EA01421A61D4E90B1242EA014223
:105F30005A61DA6A94F8350002F07F4294F836101C
:105F4000DA62DD6A94F834202A4342EA002242EA07
:105F50000142DA620422C3F80821C3F808225A6E0B
:105F6000002042F044025A669A6942F001029A61A6
:105F70000123C4F8A40084F8A13038BD0120FCE757
:105F8000F7B590F8A0300646012B0D4617464FF0A6
:105F900002002CD0342404FB026486F8A1003834BB
:105FA0000FCD0FC40FCD0FC40FCD0FC42B683946D2
:105FB00023603046FFF766FE39463046FFF738FE6D
:105FC000002234687B1C04EB0324236B304623F04F
:105FD00008032363114603230097FFF7FCFC052306
:105FE0000020A360012386F8A00086F8A13003B04A
:105FF000F0BD10B5034690F8A00001284FF0020054
:1060000012D083F8A10018680132446E41F00401F7
:1060100044F00804446600EB022081600122002065
:1060200083F8A12083F8A00010BDF0B5002590F8FA
:10603000A03087B0012B04460F4616464FF00203EE
:10604000CDE9035505951AD080F8A13005A9009235
:1060500004AB03AAFFF758FE342303FB0643204694
:10606000DF652A46059B29460096FFF7B4FC01230D
:10607000284684F8A13084F8A05007B0F0BD184637
:10608000FBE7000011F0200F10B50D4B0DD01A6F7B
:1060900001F0220102431A6722295A6F01D10243FB
:1060A00001E022EA00025A6710BDC4431A6F01F0F2
:1060B000110122401A6711295A6FF0D02240F2E7ED
